:100000000C94D2000C94D1660C9402670C94336764
:100010000C9464670C9495670C94C6670C94F7670E
:100020000C9428680C94FD000C94FD000C94FD00C9
:100030000C9446070C94FD000C94FD000C940406EF
:100040000C94FD000C94FD000C94FD000C94FD003C
:100050000C94FD000C94FD000C94FD000C94DF0545
:100060000C94FD000C94CC680C94FD000C94FD00E5
:100070000C94FD000C94FD000C94FD000C94FD000C
:100080000C94FD000C94FD000C94FD000C94FD00FC
:100090000C940D690C94FD000C94FD000C9471659A
:1000A0000C94FD000C94FD000C94FD000C94FD00DC
:1000B0000C94FD000C94FD000C94FD000C94FD00CC
:1000C0000C94FD000C94FD000C94FD0000212427ED
:1000D0002A2D3033002225282B2E313400202326D0
:1000E000292C2F3205050505030303030101010433
:1000F00004030606060606060606010405010501B8
:1001000003020202020202010202050504040304C2
:1001100004010304070707010208101020408004AF
:1001200008102040020204081020408001028020B4
:100130004004200101020408102001408040800199
:1001400002080408800410040201000008090000ED
:10015000000000000000000000000000000000009F
:10016000000000000000000000000000000000008F
:10017000000000000000000000000000007C3C3E89
:100180005E2B3D3F2F5B5D3B2C2A225C00009E0EC8
:10019000A20EA30E1C109710B0647065C86E7B761B
:1001A0008C7B917B11241FBECFEFD1E2DEBFCDBF90
:1001B0001BE0A0E0B2E0E8EAF8EF00E00BBF02C00D
:1001C00007900D92AA39B107D9F71BBE17E1AAE92A
:1001D000BBE001C01D92A83EB107E1F711E0C4EAFF
:1001E000D1E004C02297FE010E94177CCE38D107CF
:1001F000C9F70E94D8050C94527C0C9400000F9310
:100200001F93CF93DF93689F8001699F100D789FA4
:10021000100D1124C8010E941B01EC01009729F068
:1002200060E070E0A8010E948B02CE01DF91CF91C7
:100230001F910F910895CF93DF93BC0182309105F8
:1002400010F462E070E0A091E617B091E717ED01BD
:10025000E0E0F0E040E050E021C08881998186171D
:10026000970769F48A819B81309719F09383828381
:1002700004C09093E7178093E617FE0134C0681717
:10028000790738F44115510519F08417950708F4DA
:10029000AC01FE018A819B819C01E9012097E9F66E
:1002A00041155105A9F1CA01861B970B049708F463
:1002B000BA01E0E0F0E02AC08D919C91119784177B
:1002C0009507F9F46417750781F412968D919C9146
:1002D0001397309719F09383828304C09093E717A4
:1002E0008093E617FD0132964CC0CA01861B970B1E
:1002F000FD01E80FF91F6193719302978D939C9311
:1003000040C0FD01828193819C01D9011097A1F623
:100310008091E4179091E517892B41F48091530B5C
:100320009091540B9093E5178093E4174091550BEF
:100330005091560B4115510541F44DB75EB7809170
:10034000510B9091520B481B590B2091E41730919F
:10035000E517CA01821B930B8617970780F0AB0144
:100360004E5F5F4F8417950750F0420F531F509315
:10037000E5174093E417F9016193719302C0E0E03F
:10038000F0E0CF01DF91CF910895CF93DF930097F5
:1003900009F450C0EC0122971B821A82A091E61743
:1003A000B091E717109709F140E050E0AC17BD0796
:1003B00008F1BB83AA83FE0121913191E20FF31F63
:1003C000AE17BF0779F48D919C911197280F391FB3
:1003D0002E5F3F4F3983288312968D919C911397FE
:1003E0009B838A834115510571F4D093E717C0931D
:1003F000E61720C012968D919C911397AD0100973E
:1004000011F0DC01D3CFFA01D383C2832191319162
:10041000E20FF31FCE17DF0769F488819981280F57
:10042000391F2E5F3F4FFA01318320838A819B81E0
:1004300093838283DF91CF910895A0E0B0E0E3E25F
:10044000F2E00C94237CEC01A880B980CA80DB80A8
:10045000A114B104C104D10441F484E2A82E89EDB1
:10046000B82E8BE5C82E87E0D82EC601B5012DE148
:1004700033EF41E050E00E94FA7B27EA31E440E0AC
:1004800050E00E94927B7B018C01C601B5012DE1F9
:1004900033EF41E050E00E94FA7BCA01B9012CEE33
:1004A00034EF4FEF5FEF0E94927B6E0D7F1D801F38
:1004B000911F97FF04C0615070408040904868834E
:1004C00079838A839B839B013F77C901CDB7DEB7D0
:1004D000EAE00C943F7C0E941D02089587E59BE0B2
:1004E0000E941D020895A0E0B0E08093570B909306
:1004F000580BA093590BB0935A0B0895FB01DC01E4
:1005000004C08D910190801921F441505040C8F7EA
:10051000881B990B0895DC0101C06D934150504038
:10052000E0F70895FB01DC018D9101908019011025
:10053000D9F3990B0895FB01DC0101900D92002085
:10054000E1F70895AEE0B0E0E8EAF2E00C94297C2F
:100550000D891E8986E08C831A8309838FEF9FE7BC
:100560009E838D839E01275E3F4FCE0101966F894A
:10057000788DA9010E94C6022F813885020F131FB2
:10058000F80110822E96E4E00C94457CABE0B0E0DC
:10059000ECECF2E00C941B7C3C012B015A01FC01B9
:1005A00017821682838181FD03C06FEF7FEFC6C182
:1005B0009AE0892E1E010894211C311CF30123812D
:1005C000F20123FD859123FF81912F01882309F4F6
:1005D000B2C1853239F423FD859123FF81912F012A
:1005E000853229F490E0B3010E94B904E7CF982F37
:1005F000FF24EE249924FFE1FF15D0F09B3269F02F
:100600009C3228F4903259F0933291F40EC09D320E
:1006100049F0903369F441E024C052E0F52A84E0C7
:10062000F82A28C098E0F92A25C0E0E1FE2A22C075
:10063000F7FC29C0892F80538A3070F4F6FE05C07C
:10064000989C902C1124980E15C0E89CE02C112445
:10065000E80EF0E2FF2A0EC09E3229F4F6FC6BC1D0
:1006600040E4F42A07C09C3619F450E8F52A02C089
:10067000983649F4F20123FD959123FF91912F01C2
:10068000992309F0B8CF892F8554833018F0805210
:10069000833038F444E050E0A40EB51E5FE3598384
:1006A0000FC0933631F0933779F0933509F056C087
:1006B00020C0F5018081898342E050E0A40EB51E80
:1006C000610101E010E012C0F501C080D180F6FCAC
:1006D00003C06FEF7FEF02C0692D70E042E050E091
:1006E000A40EB51EC6010E94AE048C015FE7F52280
:1006F00014C0F501C080D180F6FC03C06FEF7FEF1E
:1007000002C0692D70E042E050E0A40EB51EC601A3
:100710000E94A3048C0150E8F52AF3FE07C01AC01A
:1007200080E290E0B3010E94B904EA948E2D90E03B
:1007300008171907A8F30EC0F601F7FC8591F7FE1C
:1007400081916F0190E0B3010E94B904E110EA9435
:10075000015010400115110579F7EAC0943611F0E7
:10076000993669F5F7FE08C0F50120813181428193
:10077000538184E090E00AC0F501808191819C0161
:10078000442737FD4095542F82E090E0A80EB91E13
:100790009FE6F92257FF09C0509540953095219565
:1007A0003F4F4F4F5F4FE0E8FE2ACA01B901A10158
:1007B0002AE030E00E94E504D82ED21840C09537D8
:1007C00029F41F2D1F7E2AE030E01DC01F2D197F48
:1007D0009F3661F0903720F4983509F0ACC00FC017
:1007E000903739F0983709F0A6C004C028E030E00F
:1007F0000AC0106114FD146020E130E004C014FD53
:10080000166020E132E017FF08C0F50160817181B8
:100810008281938144E050E008C0F501808191819C
:10082000BC0180E090E042E050E0A40EB51EA101C2
:100830000E94E504D82ED2188FE7F82EF122F6FE9A
:100840000BC05EEFF522D91438F4F4FE07C0F2FCB9
:1008500005C08FEEF82202C01D2D01C0192DF4FE37
:100860000DC0FE01ED0DF11D8081803319F499EE6C
:10087000F92208C01F5FF2FE05C003C08F2D8678E5
:1008800009F01F5F0F2DF3FC14C0F0FE0FC01E1502
:1008900010F09D2C0BC09D2C9E0C911A1E2D06C095
:1008A00080E290E0B3010E94B9041F5F1E15C0F3FF
:1008B00004C01E1510F4E11A01C0EE2404FF0FC09D
:1008C00080E390E0B3010E94B90402FF1DC001FD66
:1008D00003C088E790E00EC088E590E00BC0802F51
:1008E000867891F001FF02C08BE201C080E2F7FC44
:1008F0008DE290E0B3010E94B90406C080E390E06D
:10090000B3010E94B9049A94D914C0F3DA94F101A6
:10091000ED0DF11D808190E0B3010E94B904DD204E
:10092000A9F706C080E290E0B3010E94B904EA94FE
:10093000EE20C1F743CEF30166817781CB012B9680
:10094000E2E10C94377CFC0105906150704001108D
:10095000D8F7809590958E0F9F1F0895FC016150E8
:10096000704001900110D8F7809590958E0F9F1FD1
:1009700008950F931F93CF93DF938C01EB018B812D
:1009800081FF1BC082FF0DC02E813F818C819D8124
:100990002817390764F4E881F9810193F983E88322
:1009A00006C0E885F985802F0995892B31F48E8161
:1009B0009F8101969F838E8302C00FEF1FEFC801B6
:1009C000DF91CF911F910F910895FA01AA27283046
:1009D00051F1203181F1E8946F936E7F6E5F7F4F0C
:1009E0008F4F9F4FAF4FB1E03ED0B4E03CD0670F88
:1009F000781F891F9A1FA11D680F791F8A1F911DDB
:100A0000A11D6A0F711D811D911DA11D20D009F42A
:100A100068943F912AE0269F11243019305D31936C
:100A2000DEF6CF010895462F4770405D4193B3E055
:100A30000FD0C9F7F6CF462F4F70405D4A3318F0FC
:100A4000495D31FD4052419302D0A9F7EACFB4E0AD
:100A5000A6959795879577956795BA95C9F7009765
:100A60006105710508959B01AC010A2E0694579506
:100A7000479537952795BA95C9F7620F731F841F5D
:100A8000951FA01D089580E29EE40E94650E68E90E
:100A90007AE380E090E00E94320A0E94230E83E213
:100AA0009EE00E9416198FED9CE064E670E00E94C3
:100AB0006B100895EF92FF920F931F93CF93DF93E4
:100AC00083E29EE062E041E021E00E946A6583E209
:100AD0009EE00E946F6183E29EE06BE57BE00E94F6
:100AE000B73783E29EE00E943B390E94AB098DEB51
:100AF0009BE00E94BF08F82EE92E00D000D000D065
:100B0000EDB7FEB731968AE99BE0ADB7BEB7129656
:100B10009C938E93119780E092E093838283F4827A
:100B2000E5820E94A20200E112E0CBE6D0E0EDB740
:100B3000FEB736960FB6F894FEBF0FBEEDBFD801D4
:100B40004D918D018FED9CE0BE010E94B60E219665
:100B5000B2E008311B0799F7C3E9D0E0FE01E95F75
:100B6000F44F8FED9CE0BE0140810E94B60E2196AD
:100B7000C33AD10599F783E29EE00E940E522F2DD1
:100B80003E2DB90193E0660F771F9A95E1F7220F8A
:100B9000331F620F731F882777FD8095982F0E945F
:100BA0004106DF91CF911F910F91FF90EF90089533
:100BB0000E9489060E945A050E944305FDCF1F929C
:100BC0000F920FB60F9211248F939F93AF93BF9301
:100BD00080915C1590915D15A0915E15B0915F15A7
:100BE0000196A11DB11D80935C1590935D15A09396
:100BF0005E15B0935F15BF91AF919F918F910F904C
:100C00000FBE0F901F9018951F920F920FB60F9264
:100C100011248F939F93AF93BF9380916015909110
:100C20006115A0916215B09163150196A11DB11DCA
:100C30008093601590936115A0936215B09363152E
:100C4000BF91AF919F918F910F900FBE0F901F900A
:100C5000189560915C1570915D1580915E1590916D
:100C60005F1527E0660F771F881F991F2A95D1F718
:100C70002EE330E040E050E00E94D87BCA01B90189
:100C80000895AF92BF92CF92DF92EF92FF920F93AF
:100C90001F935B016C0160915C1570915D158091F3
:100CA0005E1590915F1547E0660F771F881F991FAB
:100CB0004A95D1F72EE330E040E050E00E94D87B27
:100CC00079018A0160915C1570915D1580915E15C6
:100CD00090915F1537E0660F771F881F991F3A952F
:100CE000D1F72EE330E040E050E00E94D87B2E198F
:100CF0003F09400B510B2A153B054C055D0510F3D0
:100D00001F910F91FF90EF90DF90CF90BF90AF9029
:100D10000895789484B7877F84BF10925C151092F1
:100D20005D1510925E1510925F1584B5826084BDCA
:100D300084B5816084BD85B5826085BD85B58160DF
:100D400085BDEEE6F0E0808181608083E1E8F0E03F
:100D5000808182608083808181608083E0E8F0E030
:100D6000808181608083E1EBF0E08081846080831A
:100D7000E1E9F0E0808184608083E0EBF0E0808155
:100D800081608083E0E9F0E0808181608083E4E637
:100D9000F0E080818E7F8083ECE7F0E080818F77C8
:100DA0008083808180648083EAE7F0E080818460D2
:100DB00080838081826080838081806880831092BC
:100DC000C1001092C90008959091AA0B982B90939E
:100DD000AA0B80FF32C0809164008E7F80936400F4
:100DE00080917C008F7780937C0080917C00806470
:100DF00080937C0080917A00846080937A00809157
:100E00007A00826080937A0080917A008068809373
:100E10007A00809164008F778093640080916400F1
:100E20008B7F80936400809164008D7F8093640049
:100E3000809165008E7F809365000895282F20950E
:100E40009091AA0B92239093AA0B80FF1EC08091D1
:100E50007A008F7780937A0080916400816080931C
:100E600064008091640080688093640080916400D5
:100E70008460809364008091640082608093640049
:100E80008091650081608093650008951F920F92A4
:100E90000FB60F920BB60F9211242F933F934F93DF
:100EA0005F936F937F938F939F93AF93BF93EF93D2
:100EB000FF93F89481E08093630BE0E6F0E080819B
:100EC0008068808380818F7B808383E060E00E94E4
:100ED0009B077894FF91EF91BF91AF919F918F9174
:100EE0007F916F915F914F913F912F910F900BBE2A
:100EF0000F900FBE0F901F901895282F30E0C9015A
:100F0000895E9E4FFC0194912C513F4FF9018491D1
:100F1000882381F0E82FF0E0E453FF4FE491F0E004
:100F2000662329F4808190958923808308958081A8
:100F3000892B80830895482F50E0CA01865B9E4F1D
:100F4000FC012491CA01895E9E4FFC0194914C5191
:100F50005F4FFA0134913323C1F1222331F1233061
:100F600021F4809180008F7705C0243031F4809186
:100F700080008F7D8093800018C0213019F484B5E3
:100F80008F7704C0223021F484B58F7D84BD0DC0DD
:100F9000263021F48091B0008F7705C0273029F4E6
:100FA0008091B0008F7D8093B000E32FF0E0EC5291
:100FB000FF4FE491F0E0662329F480819095892326
:100FC000808308958081892B808308950F931F93D8
:100FD000CF93DF93EC0100916A0B10916B0BB8017A
:100FE0000E949202009709F4C4C000916C0B10910A
:100FF0006D0BCE01B8010E949202009709F4B9C0AE
:1010000000916E0B10916F0BCE01B8010E949202FD
:10101000009709F4AEC00091700B1091710BCE01D6
:10102000B8010E949202009709F4A3C00091720BCC
:101030001091730BCE01B8010E949202009709F43F
:1010400098C00091740B1091750BCE01B8010E94ED
:101050009202009709F48DC00091760B1091770BE6
:10106000CE01B8010E949202009709F482C000915B
:10107000780B1091790BCE01B8010E949202009773
:1010800009F477C000917A0B10917B0BCE01B80167
:101090000E949202009709F46CC000917C0B1091A1
:1010A0007D0BCE01B8010E949202009709F461C045
:1010B00000917E0B10917F0BCE01B8010E9492022D
:1010C000009709F456C00091800B1091810BCE015E
:1010D000B8010E949202009709F44BC00091820B64
:1010E0001091830BCE01B8010E949202009709F47F
:1010F00040C00091840B1091850BCE01B8010E9475
:1011000092020097B1F10091860B1091870BCE01EE
:10111000B8010E949202009761F10091880B109132
:10112000890BCE01B8010E949202009711F1009143
:101130008A0B10918B0BCE01B8010E94920200978E
:10114000C1F000918C0B10918D0BCE01B8010E9463
:101150009202009771F000918E0B10918F0BCE01CF
:10116000B8010E949202009721F00091680B109143
:10117000690BC801DF91CF911F910F910895CF9313
:10118000DF93EC0160916A0B70916B0B0E949202ED
:10119000009719F421E030E0DAC060916C0B709197
:1011A0006D0BCE010E949202009719F423E030E00B
:1011B000CEC060916E0B70916F0BCE010E949202B7
:1011C000009719F425E030E0C2C06091700B709177
:1011D000710BCE010E949202009719F427E030E0D3
:1011E000B6C06091720B7091730BCE010E94920297
:1011F000009719F42FE030E0AAC06091740B709151
:10120000750BCE010E949202009719F421E130E0A3
:101210009EC06091760B7091770BCE010E94920276
:10122000009719F423E130E092C06091780B70913F
:10123000790BCE010E949202009719F425E130E06B
:1012400086C060917A0B70917B0BCE010E94920256
:10125000009719F42DE130E07AC060917C0B709119
:101260007D0BCE010E949202009719F42FE130E02D
:101270006EC060917E0B70917F0BCE010E94920236
:10128000009719F421E230E062C06091800B709108
:10129000810BCE010E949202009719F423E230E004
:1012A00056C06091820B7091830BCE010E94920216
:1012B000009719F429E230E04AC06091840B7091E4
:1012C000850BCE010E949202009719F42AE230E0C9
:1012D0003EC06091860B7091870BCE010E949202F6
:1012E000009719F42BE230E032C06091880B7091C6
:1012F000890BCE010E949202009719F42DE230E092
:1013000026C060918A0B70918B0BCE010E949202D5
:10131000009719F42FE230E01AC060918C0B7091A5
:101320008D0BCE010E949202009719F420E330E069
:101330000EC060918E0B70918F0BCE010E949202B5
:10134000009719F020E030E002C021E330E0C9014D
:10135000DF91CF910895AF92BF92CF92DF92EF923B
:10136000FF920F931F9303E21EE0C8010E941245F3
:10137000C8010E94DD442FEDE22E2CE0F22E0B5F1F
:101380001F4F9BEAA92E9BE0B92EC701B801A5010A
:1013900024E00E94C20E0450104084EBC82E8BE063
:1013A000D82EC701B801A60124E00E94C20E8DB755
:1013B0009EB708970FB6F8949EBF0FBE8DBFEDB7CE
:1013C000FEB731968DEB9BE0ADB7BEB712969C93FE
:1013D0008E93119789E192E093838283B582A482F0
:1013E000D782C6820E94A2028DB79EB708960FB61A
:1013F000F8949EBF0FBE8DBF1F910F91FF90EF908D
:10140000DF90CF90BF90AF9008950F931F93DF931D
:10141000CF93CDB7DEB7088519858FE19EE064E9EB
:1014200073E00E940111C8010E94F46A892BA9F09F
:10143000C8010E94BF086091991170919A1140EA09
:1014400053E00E94EF0B0E94CA0A682F4091920B52
:101450005091930BC8010E94640CCF91DF911F91B2
:101460000F910895EF92FF920F931F937B018C01D0
:101470000E9429062091F80B3091F90B4091FA0B4C
:101480005091FB0B621B730B840B950B6E157F0544
:101490008007910718F10E9429066093F80B70935A
:1014A000F90B8093FA0B9093FB0BE0EDFBE080814E
:1014B0009181892B11F01182108232968BE0E83FE6
:1014C000F807A9F71092CF0B1092CE0B0E94CA0A10
:1014D0006091900B7091910B0E949E0C1F910F9147
:1014E000FF90EF9008950F931F93CF93DF938C019C
:1014F000C0EDDBE068817981C8010E94920200970B
:1015000019F421E030E007C022968BE0C83FD807ED
:1015100089F720E030E0C901DF91CF911F910F9151
:1015200008950F931F93DF93CF93CDB7DEB7088550
:101530001985C8010E94730A892B99F48091CE0BFA
:101540009091CF0B84319105ACF4FC01EE0FFF1F9D
:10155000E053F44F1183008301969093CF0B809357
:10156000CE0BC8010E94BF086091991170919A1129
:101570000E94BF0BC8010E94BF0860919911709131
:101580009A1141EF53E00E94EF0BCF91DF911F9131
:101590000F9108958091FD0B8F5F8093FD0B08954F
:1015A000382F8091FC0B8E3110F01092FC0B2091A3
:1015B000FC0B822F90E0FC01EE0FFF1FE80FF91FDC
:1015C000E250F44F3083728361832F5F2093FC0BD2
:1015D0000895AC016091660B7091670B83E29EE009
:1015E0000E94394E08950F931F9308E51CE0E2E333
:1015F000D8011D92EA95E9F7EDB7FEB73C970FB613
:10160000F894FEBF0FBEEDBFADB7BEB71196128303
:101610000183ECEFF3E01396FC93EE93129715968B
:101620009C938E93149717967C936E9316971996A6
:101630005C934E9318971B963C932E931A970E9497
:10164000A2028DB79EB70C960FB6F8949EBF0FBE40
:101650008DBFC8010E94E90A1F910F910895CF9391
:10166000DF939C01A8E5BCE082E3ED0119928A9525
:10167000E9F7E3E0683E7E07C1F5F3E0483E5F0727
:10168000D1F48DB79EB70A970FB6F8949EBF0FBEE0
:101690008DBFEDB7FEB73196CDB7DEB7BA83A9835C
:1016A0008CE194E0938382833583248381E090E00E
:1016B0009783868337C08DB79EB70A970FB6F89485
:1016C0009EBF0FBE8DBFEDB7FEB73196CDB7DEB76B
:1016D000BA83A98389E394E0938382833583248347
:1016E00081E090E09783868337C0F3E0483E5F0750
:1016F000E1F48DB79EB70A970FB6F8949EBF0FBE60
:101700008DBFEDB7FEB73196CDB7DEB7BA83A983EB
:1017100087E594E09383828335832483778366838C
:1017200081E090E09187808719C08DB79EB70A97B6
:101730000FB6F8949EBF0FBE8DBFEDB7FEB73196C2
:10174000CDB7DEB7BA83A98385E794E0938382831C
:101750003583248377836683518740870E94A20262
:10176000EDB7FEB73A960FB6F894FEBF0FBEEDBFC9
:1017700088E59CE00E94E90ADF91CF9108950F93DC
:101780001F9308E51CE022E3D8011D922A95E9F792
:10179000EDB7FEB738970FB6F894FEBF0FBEEDBF9A
:1017A0003196ADB7BEB712961C930E93119724E9EC
:1017B00034E03383228395838483778366830E9416
:1017C000A202EDB7FEB738960FB6F894FEBF0FBE73
:1017D000EDBFC8010E94E90A1F910F9108950F9370
:1017E0001F9308E51CE022E3D8011D922A95E9F732
:1017F000EDB7FEB73A970FB6F894FEBF0FBEEDBF38
:101800003196ADB7BEB712961C930E9311972EEA80
:1018100034E033832283958384837783668351877F
:1018200040870E94A202EDB7FEB73A960FB6F89431
:10183000FEBF0FBEEDBFC8010E94E90A1F910F91C4
:101840000895CF92DF92EF92FF920F931F938C0136
:101850007B0181E090E064EB70E00E94FF00FC01FE
:1018600090938B0C80938A0C1086E658FF4F108261
:10187000329682E580831292EB57F0401092960FD9
:1018800053E2C52E5EE0D52EC601BF01A801970127
:1018900001E0EE240E94F34A60918A0C70918B0C57
:1018A000C6010E945E4380918A0C90918B0C0E942D
:1018B000C50110928B0C10928A0C1F910F91FF9012
:1018C000EF90DF90CF900895EF92FF920F931F93C8
:1018D0007C0108E51CE082E3D8011D928A95E9F7B6
:1018E000EDB7FEB73A970FB6F894FEBF0FBEEDBF47
:1018F0003196ADB7BEB712961C930E93119782EE38
:1019000094E093838283648315828DEB9BE09783BD
:101910008683518740870E94A202EDB7FEB73A96B0
:101920000FB6F894FEBF0FBEEDBFC701B8010E940D
:10193000210C1F910F91FF90EF900895282FAB017C
:101940008091640B9091650B622F0E94640C089546
:101950001F93CF93DF93EA0148E55CE092E3DA015D
:101960001D929A95E9F7EDB7FEB73A970FB6F8943E
:10197000FEBF0FBEEDBF3196ADB7BEB712965C93FA
:101980004E93119729EE34E03383228384831582AA
:10199000D783C683718760870E94A20210E0EDB7EB
:1019A000FEB73A960FB6F894FEBF0FBEEDBF08C063
:1019B0008C179D0721F068E57CE00E94210C1F5FD9
:1019C000E12FF0E0EE0FFF1FE053F44F8081918193
:1019D000009771F7DF91CF911F910895FF920F93B8
:1019E0001F93CF93DF93F82E8B01CEEFDBE088813E
:1019F0008F1549F489819A81B8010E94920200975B
:101A000011F481E006C023968CE0C835D80779F739
:101A100080E0DF91CF911F910F91FF900895DF93A8
:101A2000CF93CDB7DEB78E819F810E94BF086091B2
:101A3000991170919A1143E555E00E94EF0B809146
:101A4000991190919A1160E070E040E050E02FEF22
:101A500030E00E94F30A82E090E09093D80C8093EB
:101A6000D70C4E815F818D81BE01685F7F4F0E94E0
:101A7000A80CCF91DF910895DF93CF93CDB7DEB758
:101A80009885E091900BF091910B80819817A9F4C3
:101A90008DB79EB7C5970FB6F8949EBF0FBE8DBF8A
:101AA000ADB7BEB71196FE01359685E301900D9254
:101AB0008150E1F70E94050A39C0E091920BF09144
:101AC000930B80819817B1F498878DB79EB7C5970F
:101AD0000FB6F8949EBF0FBE8DBFADB7BEB71196BF
:101AE000FE01359685E301900D928150E1F70E9449
:101AF000910A1CC0E091940BF091950B808198178E
:101B0000E9F498878DB79EB7C5970FB6F8949EBF36
:101B10000FBE8DBFADB7BEB71196FE01359685E3FA
:101B200001900D928150E1F70E940F0D8DB79EB785
:101B3000C5960FB6F8949EBF0FBE8DBFCF91DF91B3
:101B40000895CF92DF92EF92FF920F931F93CF935E
:101B5000DF93CFE8DCE092E3DE011D929A95E9F78E
:101B600021ECE22E2CE0F22E91E1F70111929A95F0
:101B7000E9F7C82EDD248601000F111F0958114F07
:101B8000D801ED91FC91848580938C0C3D96C70122
:101B9000BF010E949B02C7010E94E60790938E0C32
:101BA00080938D0CF80160817181635E7F4FCE015F
:101BB0000E949B0260918D0C70918E0C8091D20CD2
:101BC0000E94EE0C882321F560918D0C70918E0C93
:101BD0008091D20C0E94D00A8DB79EB7C5970FB6E0
:101BE000F8949EBF0FBE8DBFADB7BEB71196FE0174
:101BF000339785E301900D928150E1F70E943C0DEF
:101C0000ADB7BEB7D5960FB6F894BEBF0FBEADBF89
:101C10008601000F111F0958114FF8018081918131
:101C20000E94C501D8011D921C928091820E8150A4
:101C30008093820EDF91CF911F910F91FF90EF90D3
:101C4000DF90CF90089522C08FE19EE00E9419118D
:101C5000882331F183E29EE00E94816380916410C9
:101C6000882381F083E29EE00E94AB61882351F4D7
:101C70008FE19EE00E941911882381F3EBCF815000
:101C80000E94A10D8091820E8823C9F70E94290627
:101C90006093D30C7093D40C8093D50C9093D60C96
:101CA0000E9429062091D30C3091D40C4091D50C80
:101CB0005091D60C621B730B840B950B68587341C3
:101CC0008040904008F4C0CF0895EF92FF920F93A8
:101CD0001F937C010E9429062091D90C3091DA0CC7
:101CE0004091DB0C5091DC0C621B730B840B950B49
:101CF0000027F7FC0095102F6E157F0580079107D0
:101D0000C0F00E9429066093D90C7093DA0C80937E
:101D1000DB0C9093DC0C60919511709196114091C1
:101D20009711509198118091991190919A110E9458
:101D30002F0B1F910F91FF90EF90089508950C9431
:101D400000F0089508950895FB0120E030E002C0FE
:101D50002F5F3F4F81918823D9F7C9010895F999E1
:101D6000FECF72BD61BDF89A80B50895F999FECF96
:101D70001FBA72BD61BD40BD0FB6F894FA9AF99AC8
:101D80000FBE08950F931F93CF93DF938B01BA017A
:101D9000DA0140E050E0C22FD0E019C0F801E40FB2
:101DA000F51F8081982F92959F708F709A3010F454
:101DB000905D01C0995C9C938A3010F4805D01C0F5
:101DC000895C11968C9311974F5F5F4F12964C1759
:101DD0005D0724F3CC0FDD1FC60FD71F1882DF91DC
:101DE000CF911F910F91089528E00E94C20E08958F
:101DF0008F929F92AF92BF92CF92DF92EF92FF921B
:101E00000F931F93CF93DF93992401C09394FB0109
:101E1000E90DF11D808180538A30C0F35B01EE240F
:101E2000FF24870120C02AE030E040E050E00E941B
:101E3000927B0894C11CD11CCC16DD06A4F3282D7E
:101E4000332727FD309520533040442737FD4095F8
:101E5000542F0E94927BE60EF71E081F191F9A94BA
:101E60000894A11CB11CF5018080882D80538A3014
:101E700050F461E070E080E090E0CC24DD24C92DD6
:101E8000D0E02197D9CFB701C801DF91CF911F9141
:101E90000F91FF90EF90DF90CF90BF90AF909F9009
:101EA0008F900895FB019081892F80538A3038F4F8
:101EB000292F332727FD3095205330400DC0892F1F
:101EC0008154863018F020E030E007C0292F3327F6
:101ED00027FD30952753304031966081862F8053FF
:101EE0008A3030F4772767FD7095605370400CC0DE
:101EF000862F8154863018F060E070E005C07727A7
:101F000067FD709567537040A4E0220F331FAA95B8
:101F1000E1F7862F820F08956833A1F1693380F4C9
:101F2000643341F1653338F4623301F1633300F512
:101F30006133D1F417C0663309F1673308F51CC06B
:101F4000633441F1643438F4613401F1623400F5F2
:101F5000693351F419C0653409F16534E8F0663429
:101F600019F41EC081E01DC080E01BC082E019C0D2
:101F700083E017C084E015C085E013C086E011C07F
:101F800087E00FC088E00DC089E00BC08AE009C07F
:101F90008BE007C08CE005C08DE003C08EE001C07F
:101FA0008FE04733A1F1483380F4433341F14433A8
:101FB00038F44133F1F0423300F54033E1F51BC012
:101FC000453309F1463308F51CC0423441F143342E
:101FD00038F4493301F14933E0F0413461F51DC073
:101FE000443409F14434E8F04534F9F04634F9F06A
:101FF000089591E01DC090E01BC092E019C093E0ED
:1020000017C094E015C095E013C096E011C097E0AA
:102010000FC098E00DC099E00BC09AE009C09BE0AA
:1020200007C09CE005C09DE003C09EE001C09FE0AA
:102030008295807F890F089508958FE261E00E9464
:102040007D0784E261E00E947D0785E261E00E94F5
:102050007D078FE261E00E949B0784E261E00E94BD
:102060009B0785E261E00E949B0708950F931F93F1
:10207000162F042F8FE261E00E947D0784E261E069
:102080000E947D0785E261E00E947D078FE261E0AA
:102090000E949B0784E2612F0E949B0785E2602FCC
:1020A0000E949B071F910F9108950F931F93162F66
:1020B000042F862F61E00E947D07013019F4812FE3
:1020C00061E004C0002321F4812F60E00E949B079F
:1020D0001F910F910895CF92DF92EF92FF920F938D
:1020E0001F936C017B016CE041E00E945510C6011A
:1020F0006DE041E00E94551000E010E0C801B7011A
:102100000E944106C6016CE040E00E945510C601E5
:102110006DE040E00E945510C801B7010E944106E1
:102120001F910F91FF90EF90DF90CF900895109244
:102130001F0E1092210E08950F931F938C018DE0B6
:10214000F80160810E944E698AE0F80160810E9476
:102150004E691F910F910895EF92FF920F931F9375
:10216000CF93DF93EC017A018B0177FF0CC08DE2F6
:1021700068810E944E6910950095F094E094E11CEE
:10218000F11C011D111DC801B7012AE030E040E03B
:1021900050E008810E947569DF91CF911F910F91E6
:1021A000FF90EF9008950F931F938C01AB0166276A
:1021B00057FD6095762F0E94AC10C8010E949C10BC
:1021C0001F910F9108950F931F93FC01DA018B016A
:1021D0002115310529F4842F60810E944E690EC0BB
:1021E0002A30310519F40E94AC1008C030E040E0FC
:1021F00050E0BD01C80100810E9475691F910F91D7
:1022000008950F931F938C01CB01F80160810E9408
:102210005F69C8010E949C101F910F910895FC01F5
:1022200080810E94B8680895FC0180810E947D68C9
:102230000895FC0180810E9459680895FC01618322
:10224000613019F0633099F514C08081882311F44E
:1022500086E10DC086E061E00E947D0786E061E0D6
:102260000E949B078AE261E00E947D078AE261E0AA
:1022700005C08081882329F486E160E00E949B07E5
:1022800008958FED9CE060E040E00E94361086E00B
:1022900061E00E947D0786E060E00E949B078AE281
:1022A00061E00E947D078AE260E00E949B0708953A
:1022B000FC0180810E94176A0895FC01262F60832B
:1022C00060E070E0CB01BA01422F0E94356A86E1DE
:1022D00061E00E947D0708950F931F93CF93DF93D2
:1022E000DC018B01EC01C658DD4F1982188240E0F9
:1022F000BE0106C04F5F2F5F3F4FFB01318320833C
:10230000FB0120813181F801E20FF31F80818823D6
:1023100089F7469583E090E09983888390E0ED010A
:10232000C658DD4F50E00BC0FD01E20FF31FE85728
:10233000FD4F8081980F2F5F3F4F3983288328817D
:1023400039812417350780F3892F8095A40FB51F95
:10235000A957BD4F8C93DF91CF911F910F91089595
:10236000AF92BF92CF92DF92EF92FF920F931F93A3
:10237000CF93DF937C018B0106551F4FD8018C91C1
:102380000A5A1040F801E855FF4F813009F024C186
:10239000C22EDD24DA01AC0DBD1D83E28C93808159
:1023A000813009F446C0813020F0823009F038C213
:1023B000AAC011961C92119701571F4FF8018191E5
:1023C0008F0112968C9312978081005910401396BA
:1023D0008C931397F701E658FD4F11821082EF019D
:1023E000FCE7CF2EF2E0DF2ECE0CDF1CB7016258E7
:1023F0007D4FAD010FC0FA01E20FF31FA00FB11F17
:10240000A20FB31F1C968C918483888199810196B9
:102410009983888328813981F601A081B181FB01EC
:102420008081918101968A1B9B0B2817390718F32D
:10243000F7C111968C93B70166587D4FDB011D9251
:102440001C92EB0110C0FA01EA0FFB1FEC0DFD1D01
:10245000A00FB11FA557BF4F8C91828388819981AE
:10246000019699838883A881B981A430B10558F376
:10247000FB0111821082E701C658DD4F10C0FA013E
:10248000EA0FFB1FEC0DFD1DA00FB11FA957BF4F99
:102490008C91868388819981019699838883A8810C
:1024A000B981A430B10558F319821882E701C658E2
:1024B000DD4FECE7AE2EE2E0BE2EAE0CBF1C970166
:1024C00022583D4F11C0FA01E60FF71FEC0DFD1D1C
:1024D000A00FB11FA60FB71F1C968C918287888111
:1024E000998101969983888368817981F501A0811A
:1024F000B181F9018081918101968A1B9B0B68173C
:10250000790708F38DC111968C93C0E0D0E0D70114
:10251000A658BD4F06C0E9016F5F7F4F11967C93AF
:102520006E936D917C911197F801E60FF71FEF56AE
:10253000FF4F80819E012F5F3F4F833261F71D92D5
:102540001C92E701C658DD4F10C0FA01EA0FFB1FCD
:10255000EC0DFD1DA00FB11FAF56BF4F8C918283B4
:1025600088819981019699838883A881B981A2176E
:10257000B30758F319821882E701C658DD4F7CE78C
:10258000A72E72E0B72EAE0CBF1C8EE792E0E80ECD
:10259000F91E13C0FA01E60FF71FE20FF31FEC0D4F
:1025A000FD1DA00FB11FA60FB71F1C968C91828333
:1025B0008881998101969983888368817981F50161
:1025C000A081B181F7018081918101968A1B9B0BCB
:1025D00068177907F8F224C18081813009F446C078
:1025E000813020F0823009F01BC1AEC030E0FA012A
:1025F000E20FF31F108201571F4FD8018D918D01FB
:1026000081838C91005910408283F701E658FD4F79
:1026100011821082EF016CE7C62E62E0D62ECE0C3E
:10262000DF1CEEE7F2E0EE0EFF1E11C0FA01E60F2E
:10263000F71FE20FF31FA00FB11FA60FB71F1C96C5
:102640008C9183838881998101969983888368819D
:102650007981F601A081B181F70180819181019694
:102660008A1B9B0B6817790708F3DAC030E0FA0180
:10267000E20FF31F8083B70166587D4FDB011D9287
:102680001C92EB0110C0FA01EA0FFB1FE20FF31FCF
:10269000A00FB11FA557BF4F8C918183888199816D
:1026A000019699838883A881B981A430B10558F334
:1026B000FB0111821082E701C658DD4F10C0FA01FC
:1026C000EA0FFB1FE20FF31FA00FB11FA957BF4F67
:1026D0008C91858388819981019699838883A881CB
:1026E000B981A430B10558F319821882E701C658A0
:1026F000DD4F9CE7C92E92E0D92ECE0CDF1C8EE771
:1027000092E0E80EF91E11C0FA01E60FF71FE20F82
:10271000F31FA00FB11FA60FB71F1C968C918187C6
:102720008881998101969983888368817981F601EE
:10273000A081B181F7018081918101968A1B9B0B59
:102740006817790708F36CC0C22EDD24FA01EC0D7E
:10275000FD1D8083C0E0D0E0D701A658BD4F06C064
:10276000E9016F5F7F4F11967C936E936D917C9121
:102770001197F801E60FF71FEF56FF4F80819E017A
:102780002F5F3F4F833261F71D921C92E701C658BD
:10279000DD4F10C0FA01EA0FFB1FEC0DFD1DA00F6D
:1027A000B11FAF56BF4F8C9181838881998101966B
:1027B00099838883A881B981A217B30758F3198236
:1027C0001882E701C658DD4F8CE7A82E82E0B82EAC
:1027D000AE0CBF1C8EE792E0E80EF91E13C0FA01A2
:1027E000E60FF71FE20FF31FEC0DFD1DA00FB11F49
:1027F000A60FB71F1C968C918183888199810196C1
:102800009983888368817981F501A081B181F7017D
:102810008081918101968A1B9B0B68177907F8F2DA
:10282000DF91CF911F910F91FF90EF90DF90CF90AC
:10283000BF90AF9008953F924F925F926F927F92B8
:102840008F929F92AF92BF92CF92DF92EF92FF92C0
:102850000F931F93DF93CF9300D000D0CDB7DEB797
:102860006B014A017901AA24A39410E022E730E029
:10287000C20ED31E21E3422E9DE7792E83E3382E2C
:10288000BEE56B2EADE55A2E30C1D401A60FB71FA1
:102890008C91813111F090E04AC04C92F701808117
:1028A0008F5F80838C917C926F5F7F4F9401260FA6
:1028B000371F3C832B8361507040FB013296FA83B3
:1028C000E98320C0EB81FC81B180418349815A8139
:1028D0004F5F5F4F3296FC83EB8329813A812E5FF5
:1028E0003F4F3A832983F70180819801280F311DDA
:1028F000C901F60120813181820F931F48175907C2
:10290000A8F48B2DEB81FC8140818083F7018081CD
:102910009801280F311DC901F60120813181820FF4
:10292000931F29813A812817390760F291E08C9131
:10293000833109F04DC0992309F04AC03C92F70158
:1029400080818F5F80838C917C926F5F7F4F940139
:10295000260F371F3C832B8361507040FB0132965A
:10296000FA83E98320C0EB81FC81B18041834981F6
:102970005A814F5F5F4F3296FC83EB8329813A8106
:102980002E5F3F4F3A832983F70180819801280FFA
:10299000311DC901F60120813181820F931F481733
:1029A0005907A8F48B2DEB81FC8140818083F701CE
:1029B00080819801280F311DC901F60120813181E4
:1029C000820F931F29813A812817390760F291E01D
:1029D0008C918E3709F04DC0992309F04AC06C9252
:1029E000F70180818F5F80838C917C926F5F7F4F36
:1029F0009401260F371F3C832B8361507040FB01ED
:102A00003296FA83E98320C0EB81FC81B180418357
:102A100049815A814F5F5F4F3296FC83EB83298156
:102A20003A812E5F3F4F3A832983F70180819801D5
:102A3000280F311DC901F60120813181820F931FBA
:102A400048175907A8F48B2DEB81FC8140818083C6
:102A5000F70180819801280F311DC901F6012081FD
:102A60003181820F931F29813A812817390760F23B
:102A700091E02C912D37C1F59923B1F55C92F701C6
:102A800080818F5F80838C912C936F5F7F4FF401E7
:102A9000E60FF71F6F5F7F4F17C0B1804183AB0117
:102AA0004F5F5F4F32966E5F7F4FD7018C919801D9
:102AB000280F311DC901D6012D913C91820F931F22
:102AC0004817590788F48B2D40818083D7018C915A
:102AD0009801280F311DC901D6012D913C91820F1B
:102AE000931F68177907C8F2A3946A2D70E0F70165
:102AF00080819801280F311DC901D6012D913C918B
:102B0000820F931F6817790708F4BFCE0F900F90BC
:102B10000F900F90CF91DF911F910F91FF90EF9049
:102B2000DF90CF90BF90AF909F908F907F906F90ED
:102B30005F904F903F900895DF92EF92FF920F9336
:102B40001F93CF93DF93890180E090E0F3E1DF2EC4
:102B5000EEE7EE2E31E1F32E37C02F5F3F4F9C9111
:102B60009D3731F01196319624173507B0F32DC0FB
:102B70002417350750F5E9012196E60FF71F8181EB
:102B8000833361F0843318F4813369F405C08D35E3
:102B900049F08E3541F404C0FC9205C0DC9203C0BC
:102BA000EC9201C09C9341505040F901E00FF11F9D
:102BB000E60FF71F02C0818180832F5F3F4F319660
:102BC000CE0124173507B8F39C012417350738F4D4
:102BD000F901E00FF11FDB01AE0FBF1FC0CFDF9186
:102BE000CF911F910F91FF90EF90DF900895EF929A
:102BF000FF920F931F93CF93DF938C01EB017A0128
:102C0000FC01E658FD4F2D5F3F4F31832083235059
:102C10003040A0E0B0E0AF010BC0FE01E60FF71FAF
:102C20008081A80FB11D6F5F7F4FFA0171836083B0
:102C3000FA01608171816E157F0578F3AF3FB105B0
:102C400021F0AF3F11F081E008C008521E4FC20FC3
:102C5000D31F8C81F801808380E0DF91CF911F9199
:102C60000F91FF90EF900895EF92FF920F931F93B3
:102C7000CF93DF93EC01CA5BDD4FE8808DEEE80E69
:102C800024978881C254D240813009F0C9C0CD5DFB
:102C9000DE4FF880C352D140FA948E0106581D4F82
:102CA000D8011D921C92B8012F2D30E087E290E0F0
:102CB000289FA001299F500D389F500D11244C0FC3
:102CC0005D1F11C0FA01EA0FFB1FE05AFF4FAC0F66
:102CD000BD1FA85BBD4F8C918083FB0180819181DA
:102CE000019691838083FB01A081B181A230B1055F
:102CF00048F3D8011D921C92AE0146585D4F2F2D0E
:102D000030E087E290E0289FB001299F700D389F46
:102D1000700D11246C0F7D1F11C0FB01EA0FFB1F0A
:102D2000EE59FF4FAC0FBD1FA65BBD4F8C9180834A
:102D3000FA0180819181019691838083FA01A081BB
:102D4000B181A430B10548F311821082BE016658EA
:102D50007D4F2F2D30E087E290E0289FA001299F32
:102D6000500D389F500D11244C0F5D1F12C0FA01F9
:102D7000EA0FFB1FEA59FF4FAC0FBD1FA25BBD4F0F
:102D80008C918083DB018D919C91119701968D939D
:102D90009C93FB01A081B181A430B10540F387E28F
:102DA00090E0289FF001299FF00D389FF00D11242D
:102DB000EC0FFD1FEA57FF4FCE5ADD4F8881C255F9
:102DC000D2408083E658F040AE014A5B5D4FDA01A5
:102DD0008D919C910D9720F1DB011D921C929E011B
:102DE00026583D4FBA01AF0111C0FA01EA0FFB1F8F
:102DF000E659FF4FAC0FBD1FAD5ABD4F8C9180837C
:102E0000F90180819181019691838083F901A081EC
:102E1000B181FB01808191810C97A817B90728F334
:102E2000CE5BDD4F8881C254D2408250843008F09E
:102E300047C1CD5DDE4FF880C352D140FA948E0178
:102E400006581D4FD8011D921C92B8012F2D30E05D
:102E500087E290E0289FA001299F500D389F500DD8
:102E600011244C0F5D1F11C0FA01EA0FFB1FE05A3D
:102E7000FF4FAC0FBD1FA85BBD4F8C918083FB0142
:102E800080819181019691838083FB01A081B18132
:102E9000A230B10548F3D8011D921C92AE014658EC
:102EA0005D4F2F2D30E087E290E0289FB001299FF1
:102EB000700D389F700D11246C0F7D1F11C0FB0128
:102EC000EA0FFB1FEE59FF4FAC0FBD1FA65BBD4FB6
:102ED0008C918083FA018081918101969183808316
:102EE000FA01A081B181A430B10548F311821082AA
:102EF000AE0146585D4F2F2D30E087E290E0289FCD
:102F0000B001299F700D389F700D11246C0F7D1F2B
:102F100012C0FB01EA0FFB1FEA59FF4FAC0FBD1FA8
:102F2000A25BBD4F8C918083DA018D919C911197AA
:102F300001968D939C93FA01A081B181A430B105D3
:102F400040F311821082AE0146585D4F0E2D10E005
:102F50002F2D30E087E290E0289FB001299F700D6F
:102F6000389F700D11246C0F7D1F12C0FB01EA0FFA
:102F7000FB1FE659FF4FAC0FBD1FAE5ABD4F8C91E2
:102F80008083DA018D919C91119701968D939C938A
:102F9000FA01A081B181A017B10740F3118210821C
:102FA000BE0166587D4F2F2D30E087E290E0289FCC
:102FB000A001299F500D389F500D11244C0F5D1F0B
:102FC00014C0FA01EA0FFB1FE258FF4FAC0FBD1F00
:102FD000A00FB11FAD5ABD4F8C918083DB018D9145
:102FE0009C91119701968D939C93FB01A081B181D7
:102FF000A230B10530F387E290E0289FD001299FED
:10300000B00D389FB00D1124AC0FBD1FA058BF4F9D
:10301000FE01EE0DF11DEB5AFD4F81918D938081E4
:103020008C93A158B040FB0111821082AE0146582A
:103030005D4FBD0114C0FB01EA0FFB1FEE57FF4FB0
:10304000AC0FBD1FA00FB11FA95ABD4F8C9180833B
:10305000DA018D919C91119701968D939C93FA01C1
:10306000A081B181A230B10530F311821082BE017E
:1030700066587D4F87E290E0289FA001299F500D60
:10308000389F500D11244C0F5D1F14C0FA01EA0F38
:10309000FB1FEC57FF4FAC0FBD1FA00FB11FA75A6E
:1030A000BD4F8C918083DB018D919C91119701968E
:1030B0008D939C93FB01A081B181A230B10530F3C7
:1030C000DF91CF911F910F91FF90EF900895CF92D4
:1030D000DF92EF92FF920F931F93CF93DF93EC0158
:1030E0006B017A01B901FC01E658FD4F0D5F1F4FDE
:1030F0001183008303501040A0E0B0E09F010BC09B
:10310000F601E40FF51F8081A80FB11D4F5F5F4FDF
:10311000F90151834083F9014081518146175707D6
:1031200078F3AF3FB10519F0AF3F09F05AC0F6018F
:10313000E00FF11F9581D70115968C91159798177F
:1031400009F04FC0968116968C91981709F049C0E6
:103150009B01201B310B2930310529F487818823FD
:1031600009F442C03EC087818823D9F5FE01E658A4
:10317000FD4F11821082BF012950304012C0FE0164
:10318000E40FF51FE85BFD4FD601A40FB51FA00F9C
:10319000B11F18968C9180834F5F5F4FFB01518365
:1031A0004083DB014D915C914217530740F3CA5BAA
:1031B000DD4F39832883C654D240F70185818E3490
:1031C00091F48681843479F42230310530F0FE01A7
:1031D000ED5DFE4F80818F5F8083CE010E943416AB
:1031E00002C081E001C080E0DF91CF911F910F917B
:1031F000FF90EF90DF90CF900895FC01E658FD4FCF
:1032000011821082DF010BC0FC01E20FF31FE857AF
:10321000FD4F10822F5F3F4F11963C932E932D91BF
:103220003C9111972E31310578F30895FC01EB5B49
:10323000FD4F80810E94B8680895CF92DF92EF928F
:10324000FF920F931F93CF93DF936C01FC01E6581D
:10325000FD4F118210828F01E62EFF24E701CC0F73
:10326000DD1FCC0FDD1FCE0DDF1D1CC0EC0FFD1FC1
:103270003B96EE0FFF1FEC0DFD1D808191810E949A
:10328000C501D8018D919C911197FE01E80FF91F9E
:103290003B96EE0FFF1FEC0DFD1D11821082019673
:1032A0008D939C93D801ED91FC91E530F105F0F2FE
:1032B0008701000F111F0C0D1D1D075B1F4FD8014B
:1032C000ED91FC9115AA16AA17AA10AECF010E9483
:1032D000C501F80111821082F601ED5AFF4F80817D
:1032E00081508083DF91CF911F910F91FF90EF90DC
:1032F000DF90CF900895AF92BF92CF92DF92FF926E
:103300000F931F93CF93DF936C01FF2460E070E075
:103310008C0106581D4FD8016D937C93EB01AA9642
:10332000CC0FDD1FCC0DDD1D23C05F010894A11C57
:10333000B11CA881B981A555BF4FBB96EE0FFF1FE9
:10334000EC0DFD1D0190F081E02DE555FF4F2D9115
:103350003D914D915C9180819181A281B3818217D1
:103360009307A407B50754F4F394F801B182A0823F
:10337000D801ED91FC91E430F105B8F2B4E0FB1610
:1033800021F4F62E65E070E002C0F62EF3946F5F34
:103390007F4F6530710508F4BECF0F2D10E0065D3C
:1033A0001F4F000F111F0C0D1D1DF8018081918111
:1033B0000E94C501D8011D921C928F2DDF91CF91E3
:1033C0001F910F91FF90DF90CF90BF90AF90089525
:1033D000AF92BF92CF92DF92FF920F931F93CF9342
:1033E000DF936C01FF2460E070E08C0106581D4FF4
:1033F000D8016D937C93EB01AA96CC0FDD1FCC0D09
:10340000DD1D23C05F010894A11CB11CA881B981F6
:10341000A555BF4FBB96EE0FFF1FEC0DFD1D019094
:10342000F081E02DE555FF4F2D913D914D915C913F
:1034300080819181A281B381281739074A075B07F0
:1034400054F4F394F801B182A082D801ED91FC917B
:10345000E430F105B8F2B4E0FB1621F4F62E65E095
:1034600070E002C0F62EF3946F5F7F4F65307105F8
:1034700008F4BECF0F2D10E0065D1F4F000F111F87
:103480000C0D1D1DF801808191810E94C501D8019C
:103490001D921C928F2DDF91CF911F910F91FF9064
:1034A000DF90CF90BF90AF9008950F931F93CF936D
:1034B000DF938C01FC01E658FD4F11821082EF0171
:1034C00016C0BA96EE0FFF1FE00FF11F80819181A9
:1034D0000E94C501888199818A96FC01EE0FFF1F29
:1034E000E00FF11F11821082899799838883E88108
:1034F000F981E530F10528F3DF91CF911F910F910C
:103500000895AF92BF92CF92DF92EF92FF920F9306
:103510001F93CF93DF93EC0109E4A02EB12CA80EEA
:10352000B91EEE24FF241AE7C12E12E0D12EC80ED8
:10353000D91ED6011D921C928701000F111F000F8A
:10354000111F0E0D1F1D1CC0E00FF11F3B96EE0F4B
:10355000FF1FEC0FFD1F808191810E94C501F601C4
:1035600080819181F801E80FF91F3B96EE0FFF1F54
:10357000EC0FFD1F118210820196D6018D939C9352
:10358000D601ED91FC91E530F105F0F2D501ED9118
:10359000FC9115AA16AA17AA10AECF010E94C50168
:1035A000F501119211925F010894E11CF11CF5E004
:1035B000EF16F10409F0BDCFCD5ADF4F1882C65A7D
:1035C000DD4F188222961882DF91CF911F910F91C3
:1035D000FF90EF90DF90CF90BF90AF900895AF92A3
:1035E000BF92CF92DF92EF92FF920F931F93CF93F0
:1035F000DF93EC01FC01E355FD4F108260E070E0C9
:103600001AE7A12E12E0B12EA80EB91E7F01D50136
:103610006D937C938B01000F111F0C0F1D1F075B17
:103620001F4F28C0D8018D919C916F010894C11C37
:10363000D11CF601EE0FFF1FEC0FFD1FE75BFF4FE4
:103640000190F081E02DDC01D5962D913D914D91B9
:103650005C91D89785A996A9A7A9B0AD2817390775
:103660004A075B076CF4F70180818F5F8083D50187
:10367000CD92DC92D501ED91FC91E430F10590F210
:10368000F7018081843021F4608365E070E004C03C
:10369000862F8F5FD7018C936F5F7F4F65307105E9
:1036A00008F4B5CFFE01E658FD4F118210828F015C
:1036B0007DEAE72E72E0F72EEC0EFD1E2FC0F7011B
:1036C000808190E0FC01EE0FFF1FEE0FFF1FE80F5F
:1036D000F91FE20FF31F3B96EE0FFF1FEC0FFD1FCC
:1036E000808191810E94C501D7018C9190E0FC01FD
:1036F000EE0FFF1FEE0FFF1FE80FF91FD8018D918E
:103700009C911197E80FF91F3B96EE0FFF1FEC0FEE
:10371000FD1F1182108201968D939C93F8012081E8
:1037200031812530310558F2D701EC91F0E0EE0FF0
:10373000FF1FEC0FFD1FE75BFF4F0190F081E02DB5
:1037400015AA16AA17AA10AEEC91F0E0EE0FFF1F13
:10375000EC0FFD1FE75BFF4F808191810E94C50147
:10376000D701EC91F0E0EE0FFF1FEC0FFD1FE75BC0
:10377000FF4F11821082FE01ED5AFF4F8081815070
:103780008083C155DD4F1882DF91CF911F910F913A
:10379000FF90EF90DF90CF90BF90AF9008952F9261
:1037A0003F924F925F926F927F928F929F92AF92D1
:1037B000BF92CF92DF92EF92FF920F931F93DF930E
:1037C000CF93CDB7DEB760970FB6F894DEBF0FBECC
:1037D000CDBF7C016B01FC01E658FD4F11821082C8
:1037E0002FEA32E0E20EF31ED7018C9121E53DEF86
:1037F000E20EF31E882311F1DF0110C0F901EE0F74
:10380000FF1FEE0DFF1DE75BFF4F80819181892B2C
:1038100059F02F5F3F4F11963C932E932D913C9181
:1038200011972530310550F34DEA52E0E40EF51EB4
:10383000D7012C93E3E5FDEFEE0EFF1E2AE732E001
:10384000E20EF31ED7011D921C92E8ECFFEFEE0E84
:10385000FF1ED7018C91EEEBFDEFEE0EFF1E8130C7
:1038600079F026E432E0E20EF31ED7018D919C91AF
:10387000EAEBFDEFEE0EFF1E0C9770F50C94C92DD0
:1038800020E832E0E20EF31ED7018C91E0E8FDEF74
:10389000EE0EFF1E882379F426E432E0E20EF31EDA
:1038A000D7018D919C91EAEBFDEFEE0EFF1E05977F
:1038B00098F40C94C92D813079F426E432E0E20EBC
:1038C000F31ED7018D919C91EAEBFDEFEE0EFF1EEA
:1038D0000B9710F40C94C92D00E010E066248824A6
:1038E00077249924B70166587D4FE2E44E2EE2E03A
:1038F0005E2E4E0C5F1C51E8252E52E0352E2E0C0C
:103900003F1C970120583D4F3E872D87DB011D92BC
:103910001C92F801EE0FFF1FEE0DFF1DE75BFF4F3E
:103920000190F081E02D85A996A9A7A9B0AD181640
:1039300019061A061B060CF08CC3D2018C9181303B
:1039400009F0D0C1AD85BE858C91882309F0E1C016
:10395000D60114969C9114978081981709F079C329
:10396000AA24BB2416968C91833219F431E0A32E3D
:10397000B12C96012A0D3B1DD90116968C91DB01C5
:103980001D921C928130A9F0813020F0823009F024
:1039900088C070C09389D90117968C911797981792
:1039A00009F07FC0948918968C91981709F079C016
:1039B0007CC0FB0111821082A801440F551F4E0DDF
:1039C0005F1D475B5F4F17C0FA01A081B181A20F55
:1039D000B31FF601E20FF31FEA0DFB1D1B969C912E
:1039E0008781981719F0882483940BC02F5F3F4F6D
:1039F000DB012D933C93FB01208131812430310583
:103A000018F3DB011D921C92A801440F551F4E0DA7
:103A10005F1D475B5F4F14C0FA01A081B181A20F07
:103A2000B31FF601E20FF31FEA0DFB1D1F969C91D9
:103A300083859817A1F52F5F3F4FDB012D933C93B2
:103A4000FB01208131812430310530F325C09927D5
:103A500087FD9095F601E40FF51FEA0DFB1D278108
:103A600030E082179307D9F44F5F5F4FFB0151831A
:103A7000408307C0D801AA0FBB1FAE0DBF1DA75BB7
:103A8000BF4FFB0140815181ED91FC911197E40FF3
:103A9000F51F85898332D9F6882039F002C0882441
:103AA0008394F1E06F1609F0D4C2702E21E0A216C3
:103AB000B10479F4E02FF0E0EE0FFF1FEE0DFF1DD3
:103AC000E75BFF4F0190F081E02DD60115968C91B8
:103AD00082AFE72DF0E0EE0FFF1FEE0DFF1DE75B5D
:103AE000FF4FA081B181DB968C91DB978F5FDB96D6
:103AF0008C930190F081E02DD60112962C911297B3
:103B000083A994A9820F911D94AB83AB15969C90C9
:103B1000E3C0813009F09DC2D6011A969C911A9794
:103B20008081981709F095C2AA24BB241C968C9119
:103B3000833219F4B1E0AB2EB12C96012A0D3B1D56
:103B4000D9011C968C91DB011D921C928130A9F049
:103B5000813020F0823009F088C070C09389D9018B
:103B60001D968C911D97981709F07FC094891E9619
:103B70008C91981709F079C07CC0FB0111821082EA
:103B8000A801440F551F4E0D5F1D475B5F4F17C0C7
:103B9000FA01A081B181A20FB31FF601E20FF31F5A
:103BA000EA0DFB1D1B969C918585981719F08824BA
:103BB00083940BC02F5F3F4FDB012D933C93FB01A0
:103BC000208131812430310518F3DB011D921C92D4
:103BD000A801440F551F4E0D5F1D475B5F4F14C07A
:103BE000FA01A081B181A20FB31FF601E20FF31F0A
:103BF000EA0DFB1D1F969C9181899817A1F52F5FF7
:103C00003F4FDB012D933C93FB0120813181243018
:103C1000310530F325C0992787FD9095F601E40F13
:103C2000F51FEA0DFB1D258530E082179307D9F4B7
:103C30004F5F5F4FFB015183408307C0D801AA0F3C
:103C4000BB1FAE0DBF1DA75BBF4FFB014081518164
:103C5000ED91FC911197E40FF51F85898332D9F618
:103C6000882039F002C088248394F1E06F1609F0AF
:103C7000F0C1702E21E0A216B10479F4E02FF0E03B
:103C8000EE0FFF1FEE0DFF1DE75BFF4F0190F08170
:103C9000E02DD6011B968C9182AFE72DF0E0EE0F60
:103CA000FF1FEE0DFF1DE75BFF4FA081B181DB968B
:103CB0008C91DB978F5FDB968C930190F081E02DE8
:103CC000D60118962C91189783A994A9820F911D5B
:103CD00094AB83AB1B969C909A94B4E0B91508F012
:103CE000B4C1F8C68250843008F0B3C1D1018C91C0
:103CF000882309F0D2C0D6011B969C911B97808126
:103D0000981709F0A6C1AA24BB241D968C91833272
:103D100019F431E0A32EB12C96012A0D3B1DD901D7
:103D20001D968C91DB011D921C928130A9F081308F
:103D300020F0823009F088C070C09389D9011E96A6
:103D40008C911E97981709F07FC094891F968C91CB
:103D5000981709F079C07CC0FB0111821082A8017C
:103D6000440F551F4E0D5F1D475B5F4F17C0FA0193
:103D7000A081B181A20FB31FF601E20FF31FEA0D7C
:103D8000FB1D1B969C918685981719F088248394B7
:103D90000BC02F5F3F4FDB012D933C93FB01208134
:103DA00031812430310518F3DB011D921C92A801EA
:103DB000440F551F4E0D5F1D475B5F4F14C0FA0146
:103DC000A081B181A20FB31FF601E20FF31FEA0D2C
:103DD000FB1D1F969C9182899817A1F52F5F3F4F7D
:103DE000DB012D933C93FB0120813181243031058F
:103DF00030F325C0992787FD9095F601E40FF51F54
:103E0000EA0DFB1D268530E082179307D9F44F5F3A
:103E10005F4FFB015183408307C0D801AA0FBB1F2E
:103E2000AE0DBF1DA75BBF4FFB0140815181ED91DE
:103E3000FC911197E40FF51F85898332D9F688200C
:103E400039F002C088248394F1E06F1609F001C1B3
:103E5000702E21E0A216B10479F4E02FF0E0EE0F0D
:103E6000FF1FEE0DFF1DE75BFF4F0190F081E02D7E
:103E7000D6011C968C9182AFE72DF0E0EE0FFF1F6C
:103E8000EE0DFF1DE75BFF4F0190F081E02D83AD4C
:103E90008F5F83AFF6019484D3C0823009F0D9C01C
:103EA000D60151969C9151978081981709F0D1C005
:103EB000AA24BB2453968C91833219F4B1E0AB2E23
:103EC000B12C96012A0D3B1DD90153968C91DB0133
:103ED0001D921C928130A9F0813020F0823009F0CF
:103EE00088C070C09389D90154968C9154979817C3
:103EF00009F07FC0948955968C91981709F079C084
:103F00007BC0FB0111821082A801440F551F4E0D8A
:103F10005F1D475B5F4F17C0FA01A081B181A20FFF
:103F2000B31FF601E20FF31FEA0DFB1D1B969C91D8
:103F30008489981719F0882483940BC02F5F3F4F12
:103F4000DB012D933C93FB0120813181243031052D
:103F500018F3DB011D921C92A801440F551F4E0D52
:103F60005F1D475B5F4F14C0FA01A081B181A20FB2
:103F7000B31FF601E20FF31FEA0DFB1D1F969C9184
:103F8000808D9817A1F52F5F3F4FDB012D933C9358
:103F9000FB01208131812430310530F325C0992780
:103FA00087FD9095F601E40FF51FEA0DFB1D2489AE
:103FB00030E082179307D9F44F5F5F4FFB015183C5
:103FC000408307C0D801AA0FBB1FAE0DBF1DA75B62
:103FD000BF4FFB0140815181ED91FC911197E40F9E
:103FE000F51F85898332D9F6882031F002C08824F4
:103FF0008394F1E06F1669F5702E21E0A216B104EA
:1040000079F4E02FF0E0EE0FFF1FEE0DFF1DE75BF0
:10401000FF4F0190F081E02DD60152968C9182AF36
:10402000E72DF0E0EE0FFF1FEE0DFF1DE75BFF4FEA
:104030000190F081E02D83AD8F5F83AFF601928810
:104040009A94F4E0F91508F445C505E010E06624FB
:1040500063940F5F1F4F0530110508F457CC2AE712
:1040600032E0E20EF31ED7011D921C92E6E8FDEF4E
:10407000EE0EFF1E662009F015C6870103551D4F81
:10408000D8017C90EFEAF2E0EE0EFF1E81E0D7014E
:104090008C93E4EAFDEFEE0EFF1ED7018C91EDEA62
:1040A000FFEFEE0EFF1E853028F0C7010E94EF1AC9
:1040B000D8017C90F701ED5AFF4F80818F5F80839C
:1040C000A72CBB2481E090E06EE370E00E94FF002B
:1040D000FC012501440C551C4E0C5F1C29E430E00A
:1040E000420E531ED2018D939C93009709F4F8C59C
:1040F00022E432E0E20EF31ED7018C912EEB3DEF6D
:10410000E20EF31E813009F084C240E852E0E40E72
:10411000F51ED7018C9120E83DEFE20EF31E8823B7
:1041200009F022C112A6D201ED91FC91D60114969C
:104130008C918083F201008111810E942906D801AF
:10414000D5966D937D938D939C93D897F701E65800
:10415000FD4F118210829F01A20111C0FA016081FE
:1041600071816A0F7B1FAC0DBD1D8C91DB0119960F
:104170008C93F90180819181019691838083F9016B
:10418000A081B181A230B10548F340E050E0D601F2
:1041900016968C91833211F441E050E0D501AA0FBC
:1041A000BB1FAE0DBF1DA75BBF4F2D913C9111975B
:1041B000B601640F751FFB018681F90181A7970184
:1041C00026583D4FF901118210820D911C911197D3
:1041D000F80181A5813089F0813020F0823009F02A
:1041E00089C063C0FB018781F801838BED91FC914D
:1041F000DB0118968C91848B7DC0F90111821082AD
:104200004901BD0114C0FB01008111810A0F1B1F70
:10421000AC0DBD1DA40FB51F17968C91D8011B9630
:104220008C93F40180819181019691838083F401C4
:10423000A081B181A430B10530F3D9011D921C9247
:10424000970126583D4FB501660F771F6E0D7F1DF4
:10425000675B7F4F14C0FB01008111810A0F1B1F98
:10426000AC0DBD1DA40FB51F1B968C91D8011F96D8
:104270008C93F90180819181019691838083F9016A
:10428000A081B181A430B10530F334C0ED91FC912F
:104290001197E80FF91F258BFB0180819181019611
:1042A00091838083459710F00CC0B901FB01808198
:1042B0009181F601E80FF91FE40FF51F27812332E2
:1042C00029F7F501EE0FFF1FEE0DFF1DE75BFF4F16
:1042D0000190F081E02D2AE732E0E20EF31ED701D3
:1042E0008D919C9126E83DEFE20EF31EE80FF91F39
:1042F00083E2858B4130510571F4F501EE0FFF1F0C
:10430000EE0DFF1DE75BFF4F0190F081E02DD60120
:1043100015968C9182AFD501AA0FBB1FAE0DBF1DA4
:10432000A75BBF4FED91FC91119791E093AFF60120
:1043300095809A94F4E0F91508F4CCC32D913C9142
:104340001197F6018281F90183AB14AAF6018381EA
:10435000F90182ABED91FC9182A98150823010F479
:1043600093A7A0C413A69EC4813009F09BC482A762
:10437000D201ED91FC91D6011A968C918083F201C5
:10438000008111810E942906D801D5966D937D93F5
:104390008D939C93D897A70146585D4FFA011182DF
:1043A00010829A01B20111C0FB01008111810A0F34
:1043B0001B1FAC0DBD1D8C91D80115968C93F90176
:1043C00080819181019691838083F901A081B181DF
:1043D000A430B10548F3DA011D921C9297012658CA
:1043E0003D4FA501440F551F4E0D5F1D475B5F4FAD
:1043F00012C0FA01608171816A0F7B1FAC0DBD1D77
:1044000014968C91DB0111968C93F9018081918136
:10441000019691838083F901A081B181A430B10517
:1044200040F360E070E0D6011C968C91833211F469
:1044300061E070E0D501AA0FBB1FAE0DBF1DA75BE9
:10444000BF4F2D913C911197A601460F571FFA01BE
:104450008485F90181A7970126583D4FF901118202
:1044600010820D911C911197F80181A5813089F07E
:10447000813020F0823009F089C063C0FA0185855F
:10448000F801838BED91FC91DA011E968C91848B5F
:104490007DC0F901118210824901AD0114C0FA01F9
:1044A000008111810A0F1B1FAC0DBD1DA60FB71F88
:1044B0001D968C91D8011B968C93F401808191817B
:1044C000019691838083F401A081B181A430B1056C
:1044D00030F3D9011D921C92970126583D4FA5013A
:1044E000440F551F4E0D5F1D475B5F4F14C0FA010F
:1044F000008111810A0F1B1FAC0DBD1DA60FB71F38
:1045000051968C91D8011F968C93F90180819181ED
:10451000019691838083F901A081B181A430B10516
:1045200030F334C0ED91FC911197E80FF91F258B02
:10453000FA0180819181019691838083459710F0E3
:104540000CC0A901FA0180819181F601E80FF91FE1
:10455000E60FF71F2585233229F7F501EE0FFF1F20
:10456000EE0DFF1DE75BFF4F0190F081E02D2AE784
:1045700032E0E20EF31ED7018D919C9126E83DEFCB
:10458000E20EF31EE80FF91F83E2858BD501AA0F17
:10459000BB1FAE0DBF1DA75BBF4F2D913C91119767
:1045A000F6018085F90183AB14AAF6018185F90132
:1045B00082ABED91FC9182A98150823018F481E0A8
:1045C00083A701C013A66130710571F4F501EE0FE8
:1045D000FF1FEE0DFF1DE75BFF4F0190F081E02D07
:1045E000D6011B968C9182AFAA0CBB1CAE0CBF1CD3
:1045F000E9E4F0E0AE0EBF1ED501ED91FC9181E043
:1046000083AFF60193849A94F4E0F91508F04AC355
:1046100061C28250843008F045C321E832E0E20EE6
:10462000F31ED7018C912FE73DEFE20EF31E882396
:1046300009F066C1D6011B968C918083F20100813E
:1046400011810E942906D801D5966D937D938D9393
:104650009C93D89740E050E0F6018585833211F4B1
:1046600041E050E0D501AA0FBB1FAE0DBF1DA75BF7
:10467000BF4F2D913C911197B601640F751FFB013F
:104680008585F90181A7970126583D4FF9011182CF
:1046900010820D911C911197F80181A5813089F04C
:1046A000813020F0823009F089C063C0FB0186852B
:1046B000F801838BED91FC91DB011F968C91848B2B
:1046C0007DC0F901118210824901BD0114C0FB01B6
:1046D000008111810A0F1B1FAC0DBD1DA40FB51F5A
:1046E0001E968C91D8011B968C93F4018081918148
:1046F000019691838083F401A081B181A430B1053A
:1047000030F3D9011D921C92970126583D4FB501F7
:10471000660F771F6E0D7F1D675B7F4F14C0FB0117
:10472000008111810A0F1B1FAC0DBD1DA40FB51F09
:1047300052968C91D8011F968C93F90180819181BA
:10474000019691838083F901A081B181A430B105E4
:1047500030F334C0ED91FC911197E80FF91F258BD0
:10476000FB0180819181019691838083459710F0B0
:104770000CC0B901FB0180819181F601E80FF91F9E
:10478000E40FF51F2685233229F7F501EE0FFF1FF1
:10479000EE0DFF1DE75BFF4F0190F081E02D2AE752
:1047A00032E0E20EF31ED7018D919C9126E83DEF99
:1047B000E20EF31EE80FF91F83E2858B41305105AD
:1047C00071F4F501EE0FFF1FEE0DFF1DE75BFF4FCC
:1047D0000190F081E02DD6011C968C9182AFD5011D
:1047E000AA0FBB1FAE0DBF1DA75BBF4FED91FC9184
:1047F000119781E083AFF60194849A94F4E0F9155F
:1048000008F468C1970126583D4FF90111821082C2
:104810008901AD0111C0FA01608171816A0F7B1FAE
:10482000AC0DBD1D8C91DB0115968C93F801808138
:104830009181019691838083F801A081B181A43098
:10484000B10548F3D9011D921C92970126583D4F9E
:10485000A501440F551F4E0D5F1D475B5F4F12C0F2
:10486000FA01608171816A0F7B1FAC0DBD1D14962A
:104870008C91DB0111968C93F901808191810196D5
:1048800091838083F901A081B181A430B10540F307
:1048900011821082970126583D4FA501440F551FE4
:1048A000D701A40FB51FA75BBF4F11C06D917C91BD
:1048B0001197680F791F8C0D9D1DFC018085FB01F0
:1048C0008187F90180819181019691838083F9012B
:1048D000808191818230910548F3D701A40FB51FE3
:1048E000A75BBF4FED91FC91119713A62D913C91C1
:1048F0001197F6018285F90182ABED91FC91CDC152
:10490000823009F0CFC1D60151968C918083F2019B
:10491000008111810E942906D801D5966D937D935F
:104920008D939C93D89740E050E0F60183898332C1
:1049300011F441E050E0D501AA0FBB1FAE0DBF1D21
:10494000A75BBF4F2D913C911197B601640F751F66
:10495000FB018389F90181A7970126583D4FF90191
:10496000118210820D911C911197F80181A581305F
:1049700089F0813020F0823009F089C063C0FB01EA
:104980008489F801838BED91FC91DB0155968C9124
:10499000848B7DC0F901118210824901BD0114C0D0
:1049A000FB01008111810A0F1B1FAC0DBD1DA40F5F
:1049B000B51F54968C91D8011B968C93F40180817D
:1049C0009181019691838083F401A081B181A4300B
:1049D000B10530F3D9011D921C92970126583D4F25
:1049E000B501660F771F6E0D7F1D675B7F4F14C08B
:1049F000FB01008111810A0F1B1FAC0DBD1DA40F0F
:104A0000B51F58968C91D8011F968C93F90180811F
:104A10009181019691838083F901A081B181A430B5
:104A2000B10530F334C0ED91FC911197E80FF91FF7
:104A3000258BFB018081918101969183808345972D
:104A400010F00CC0B901FB0180819181F601E80FE3
:104A5000F91FE40FF51F2489233229F7F501EE0F22
:104A6000FF1FEE0DFF1DE75BFF4F0190F081E02D72
:104A70002AE732E0E20EF31ED7018D919C9126E8E1
:104A80003DEFE20EF31EE80FF91F83E2858B413004
:104A9000510571F4F501EE0FFF1FEE0DFF1DE75BF1
:104AA000FF4F0190F081E02DD60152968C9182AF9C
:104AB000D501AA0FBB1FAE0DBF1DA75BBF4FED9168
:104AC000FC91119781E083AFF60192889A94F4E00B
:104AD000F91518F4C701672D2BC5970126583D4FCE
:104AE000F901118210828901AD0111C0FA016081C2
:104AF00071816A0F7B1FAC0DBD1D8C91DB0115967A
:104B00008C93F80180819181019691838083F801D3
:104B1000A081B181A430B10548F3D9011D921C9246
:104B2000970126583D4FA501440F551F4E0D5F1D9F
:104B3000475B5F4F12C0FA01608171816A0F7B1F72
:104B4000AC0DBD1D14968C91DB0111968C93F9016F
:104B500080819181019691838083F901A081B18147
:104B6000A430B10540F311821082970126583D4FC1
:104B7000A501440F551FB701640F751F675B7F4F79
:104B800012C0FB01008111810A0F1B1FAC0DBD1D5E
:104B900018968C91D80119968C93F9018081918196
:104BA000019691838083F901A081B181A230B10582
:104BB00040F3F701E40FF51FE75BFF4FA081B181E0
:104BC00082E09B968C9340815181D6011A968C91FC
:104BD000DA019C968C930190F081E02DD6011B9612
:104BE0008C9185A7F90111821082970126583D4FBB
:104BF000A501440F551F4E0D5F1D475B5F4F12C04F
:104C0000FA01608171816A0F7B1FAC0DBD1D1C967E
:104C10008C91DB019E968C93F901808191810196A4
:104C200091838083F901A081B181A230B10540F365
:104C300011821082970126583D4FA501440F551F40
:104C4000D701A40FB51FA75BBF4F11C06D917C9119
:104C50001197680F791F8C0D9D1DFC018685FB0146
:104C600080ABF90180819181019691838083F90164
:104C7000808191818230910548F3F701E40FF51F9F
:104C8000E75BFF4F20813181D60150968C91D9018D
:104C9000D2968C930190F081E02D82A9823011F49C
:104CA00081E083A7072D10E0A92CBB2481E090E0D0
:104CB00068E670E00E94FF00AC01F801EE0FFF1FF4
:104CC000EE0FFF1FE00FF11FEA0DFB1D3B96EE0FED
:104CD000FF1FEE0DFF1D518340834115510521F447
:104CE000C7010E94811A26C422E432E0E20EF31EBC
:104CF000D7019C912EEB3DEFE20EF31E913009F0AF
:104D0000A2C1A0E8B2E0EA0EFB1ED7018C9120E818
:104D10003DEFE20EF31E882309F0BCC04A595F4FF5
:104D2000D60115968C91DA018C93D60116968C914A
:104D30000190F081E02D833221F4E959FF4F9083F7
:104D400003C0E959FF4F1082F801EE0FFF1FEE0F6D
:104D5000FF1FE00FF11FEA0DFB1D3B96EE0FFF1F3B
:104D6000EE0DFF1D0190F081E02DE959FF4F6081AC
:104D7000862E9924D701A658BD4F11961C921E92DB
:104D8000F801EE0FFF1FEE0DFF1DE75BFF4F0190D7
:104D9000F081E02D81A5813071F0813018F08230F2
:104DA00039F403C082E090E01CC040E050E00BC04A
:104DB00080E090E016C088E090E013C02F5F3F4F86
:104DC00011963C932E932D913C911197F601E20F91
:104DD000F31FE80DF91D87814F5F5F4F833271F735
:104DE000CA01695F680F262F30E0F701EA5BFD4FCB
:104DF000808191818217930710F431832083F80119
:104E0000EE0FFF1FEE0FFF1FE00FF11FEA0DFB1D5E
:104E10003B96EE0FFF1FEE0DFF1D608171816C59F7
:104E20007F4F46E452E0E40EF51ED7018D919C9130
:104E30004AEB5DEFE40EF51E821B930BDB018D93B5
:104E40009C93D701A658BD4F11961C921E924D01FE
:104E5000AF0110C06E0F7F1FEC0DFD1DE20FF31FA1
:104E60008081FB018083D4018D919C9111970196E3
:104E70008D939C93D401ED91FC91DA016D917C911D
:104E80006C597F4FDB018D919C9164567040E817FF
:104E9000F90700F3E0E8F2E0EE0EFF1ED7019C9167
:104EA000E0E8FDEFEE0EFF1E913009F0CCC0F801F6
:104EB000EE0FFF1FEE0FFF1FE00FF11FEA0DFB1DAE
:104EC0003B96EE0FFF1FEE0DFF1D208131812A5909
:104ED0003F4FD6011B968C91D9018C93D6011C961D
:104EE0008C910190F081E02D833221F4E959FF4F3C
:104EF000908303C0E959FF4F1082F801EE0FFF1FA6
:104F0000EE0FFF1FE00FF11FEA0DFB1D3B96EE0FAA
:104F1000FF1FEE0DFF1D0190F081E02DE959FF4FBD
:104F20006081862E9924D701A658BD4F11961C92F8
:104F30001E92F801EE0FFF1FEE0DFF1DE75BFF4F06
:104F40000190F081E02D81A5813071F0813018F061
:104F5000823039F403C082E090E01CC040E050E0B1
:104F60000BC080E090E016C088E090E013C02F5F97
:104F70003F4F11963C932E932D913C911197F60142
:104F8000E20FF31FE80DF91D85854F5F5F4F8332F8
:104F900071F7CA01635F680F262F30E0F701EA5B03
:104FA000FD4F808191818217930710F43183208314
:104FB000F801EE0FFF1FEE0FFF1FE00FF11FEA0DCC
:104FC000FB1D3B96EE0FFF1FEE0DFF1D60817181F3
:104FD0006C597F4F46E452E0E40EF51ED7018D91E7
:104FE0009C914AEB5DEFE40EF51E821B930BDB01F7
:104FF0008D939C93D701A658BD4F11961C921E927B
:105000004D01AF0110C06E0F7F1FEC0DFD1DE20FB3
:10501000F31F8081FB018083D4018D919C911197B6
:1050200001968D939C93D401ED91FC91DA016D91E1
:105030007C916C597F4FDB018D919C91645670403F
:10504000E817F90700F3E2E4F2E0EE0EFF1ED701E5
:105050008C91EEEBFDEFEE0EFF1E8250843008F0D7
:10506000ABC121E832E0E20EF31ED7018C91EFE7ED
:10507000FDEFEE0EFF1E882309F0CEC0F801EE0F03
:10508000FF1FEE0FFF1FE00FF11FEA0DFB1D3B9608
:10509000EE0FFF1FEE0DFF1D208131812A593F4F7A
:1050A000D6011C968C91D9018C93D6011D968C91BA
:1050B0000190F081E02D833229F4E959FF4F81E01E
:1050C000808303C0E959FF4F1082F801EE0FFF1FE4
:1050D000EE0FFF1FE00FF11FEA0DFB1D3B96EE0FD9
:1050E000FF1FEE0DFF1D0190F081E02DE959FF4FEC
:1050F0006081862E9924D701A658BD4F11961C9227
:105100001E92F801EE0FFF1FEE0DFF1DE75BFF4F34
:105110000190F081E02D81A5813071F0813018F08F
:10512000823039F403C082E090E01CC040E050E0DF
:105130000BC080E090E016C088E090E013C02F5FC5
:105140003F4F11963C932E932D913C911197F60170
:10515000E20FF31FE80DF91D86854F5F5F4F833225
:1051600071F7CA01625F680F262F30E0F701EA5B32
:10517000FD4F808191818217930710F43183208342
:10518000F801EE0FFF1FEE0FFF1FE00FF11FEA0DFA
:10519000FB1D3B96EE0FFF1FEE0DFF1D6081718121
:1051A0006C597F4F46E452E0E40EF51ED7018D9115
:1051B0009C914AEB5DEFE40EF51E821B930BDB0125
:1051C0008D939C93D701A658BD4F11961C921E92A9
:1051D0005D01AF0110C06E0F7F1FEC0DFD1DE20FD2
:1051E000F31F8081FB018083D5018D919C911197E4
:1051F00001968D939C93D501ED91FC91DA016D910F
:105200007C916C597F4FDB018D919C91645670406D
:10521000E817F90700F3D0C0823009F0CDC0F801DB
:10522000EE0FFF1FEE0FFF1FE00FF11FEA0DFB1D3A
:105230003B96EE0FFF1FEE0DFF1D208131812A5995
:105240003F4FD60152968C91D9018C93D60153963B
:105250008C910190F081E02D833229F4E959FF4FC0
:1052600081E0808303C0E959FF4F1082F801EE0FFF
:10527000FF1FEE0FFF1FE00FF11FEA0DFB1D3B9616
:10528000EE0FFF1FEE0DFF1D0190F081E02DE9599B
:10529000FF4F6081862E9924D701A658BD4F1196E5
:1052A0001C921E92F801EE0FFF1FEE0DFF1DE75B33
:1052B000FF4F0190F081E02D81A5813071F08130A8
:1052C00018F0823039F403C082E090E01CC040E066
:1052D00050E00BC080E090E016C088E090E013C082
:1052E0002F5F3F4F11963C932E932D913C91119738
:1052F000F601E20FF31FE80DF91D87894F5F5F4F3D
:10530000833271F7CA016C5E680F262F30E0F70117
:10531000EA5BFD4F808191818217930710F43183FE
:105320002083F801EE0FFF1FEE0FFF1FE00FF11FAC
:10533000EA0DFB1D3B96EE0FFF1FEE0DFF1D60817A
:1053400071816C597F4F46E452E0E40EF51ED7019F
:105350008D919C914AEB5DEFE40EF51E821B930B41
:10536000DB018D939C93D701A658BD4F11961C92DB
:105370001E925D01AF0110C06E0F7F1FEC0DFD1D71
:10538000E20FF31F8081FB018083D5018D919C91F9
:10539000119701968D939C93D501ED91FC91DA01C3
:1053A0006D917C916C597F4FDB018D919C9164567E
:1053B0007040E817F90700F3F701E85BFF4F8081C1
:1053C0008F5F8083853009F41082000F111F0E0D4E
:1053D0001F1D075B1F4FD801ED91FC9193AD82AD6E
:1053E000981711F481E081AF99E4C92ED12CCE0C2D
:1053F000DF1C66247724870106581D4F83E5282E7D
:10540000312C2E0C3F1CF701E355FD4FFA83E98345
:10541000970121553D4F3C832B83A701415A5F4F94
:105420005E834D83C7018E5B9D4F98878F83D70125
:10543000AF57BD4FBA87A987F701E752FE4FFC87E8
:10544000EB87D8011D921C920E942906D601ED918E
:10545000FC91309709F48FC325A936A947A950AD0F
:1054600012161306140615060CF085C3621B730B87
:10547000840B950B69557B41804090400CF037C3FD
:1054800081AD813009F000C3B62CE981FA816082D8
:10549000AB81BC811C92ED81FE8180818F5F808316
:1054A000D8011D921C920FC0F901BA96EE0FFF1F92
:1054B000EE0DFF1D80819181892B59F02F5F3F4FA9
:1054C000F80131832083D8012D913C91253031059D
:1054D00058F3E22FAD81BE818C91853090F0AB8581
:1054E000BC858C91813029F0813038F0823049F4CC
:1054F0001DC0C7010E94E81903C0C7010E947B19A3
:10550000E82F4E2E552481E090E064EB70E00E947D
:10551000FF00AC019201265D3F4F220F331F2E0D7D
:105520003F1DF90191838083009731F4C7016B2DF2
:105530000E941D198FEF2EC3D1018C9181508C9345
:1055400045555F4FD601ED91FC9185A896A8A7A877
:10555000B0ACDA018D929D92AD92BC9213974F52EE
:1055600050408081FA018083D901ED91FC91E95589
:10557000FF4FD6018D919C91DC019A968C9180838E
:10558000F901A081B181F60180819181FC0183A59F
:1055900018968C93AF81B8858C91813009F060C0EA
:1055A000F901A081B181A955BF4F8C91A75AB04094
:1055B000813009F048C0D8011D921C92A90116C083
:1055C000FA01A081B181A80FB91FAF57BF4FF601F3
:1055D00020813181280F391FF90185818C93D801F1
:1055E0008D919C91119701968D939C93F8018081E8
:1055F00091818430910520F311821082A201465DD1
:105600005F4F440F551F4E0D5F1D16C0FA01A0815C
:10561000B181A80FB91FA358BF4FF6012081318176
:10562000280F391FF90181818C93D8018D919C91AC
:10563000119701968D939C93F8018081918184301C
:10564000910520F36EC0882309F06BC0AB57BF4FA4
:10565000F60180819181FC0181858C93D90156C02E
:10566000F80111821082A90116C0FA01A081B1814E
:10567000A80FB91FAF57BF4FF60120813181280F06
:10568000391FF90185818C93D8018D919C911197D7
:1056900001968D939C93F8018081918184309105CE
:1056A00020F3118210829201265D3F4FB901660FEF
:1056B000771F6E0D7F1D13C0DB01ED91FC91E80F8C
:1056C000F91FE358FF4F480F591FDA0111968C91CB
:1056D0008083F80180819181019691838083D80134
:1056E0008D919C91F601408151818430910520F388
:1056F000D901AA0FBB1FAE0DBF1D2D913C91119773
:105700002B573F4FFA018185F9018083ED91FC9180
:10571000EA57FF4FD6018D919C91DC011A968C912E
:105720008083F601808191813AE2A32EB12CA40CF2
:10573000B51CAA0CBB1CAE0CBF1CD501ED91FC9195
:10574000EA55FF4FDC01DA966C91DA97D3968D918A
:105750009C91D49770E00E94B17B6083D501ED915C
:10576000FC91E855FF4FD6018D919C91DC019996F3
:105770008C918083F501A081B181A855BF4F8C9198
:10578000A85AB0408130D9F0813020F0823009F041
:105790008BC05DC0A157BF4FF60180819181FC0194
:1057A00083898C93D501ED91FC91E057FF4FD60191
:1057B0008D919C91DC0154968C91808375C0F80189
:1057C00011821082A50116C0FA01A081B181A80F33
:1057D000B91FA557BF4FF60120813181280F391F0E
:1057E000F90183858C93D8018D919C911197019635
:1057F0008D939C93F801808191818430910520F3F1
:1058000011821082A201465D5F4F440F551F4E0D5D
:105810005F1D16C0FA01A081B181A80FB91FA95759
:10582000BF4FF60120813181280F391FF90187858B
:105830008C93D8018D919C91119701968D939C9397
:10584000F801808191818430910520F32DC0D80129
:105850001D921C92A501F80180819181FA01A0811D
:10586000B181A80FB91FAF56BF4FF601208131811A
:10587000280F391FF90185898C93D8018D919C914E
:10588000119701968D939C93D601ED91FC91E80FB1
:10589000F91F25892332F9F6D501ED91FC91E80F26
:1058A000F91FEF56FF4F2083D601ED91FC9182AD99
:1058B000682F70E061507040F301EE0FFF1FEE0F94
:1058C000FF1FE60DF71DE60FF71F3B96EE0FFF1FBC
:1058D000EE0DFF1DF88BEF8788249924AA24BB24A2
:1058E000A201465D5F4F440F551F4E0D5F1D32C034
:1058F000D8011D921C9216C0FA0120813181280F17
:10590000391F2A0D3B1DA80FB91F8C91D9011C9678
:105910008C930894811C911CF801808191810196DF
:1059200091838083D8018D919C91EF85F889A08126
:10593000B181AC59BF4F2D913C911197A456B04005
:1059400082179307C8F2A20EB31E615070403297BF
:10595000F88BEF87FFEF6F3F7F0751F69201265DCF
:105960003F4F220F331F2E0D3F1DF901A081B18142
:10597000A059BF4F11969C928E92A057B040E985D6
:10598000FA858081823009F044C0AC58BF4FF601DF
:1059900080819181FC0184A58C93D901ED91FC91CA
:1059A000EB58FF4FD6018D919C91DC019D968C9117
:1059B0008083D901ED91FC91EA58FF4FD6018D917A
:1059C0009C91DC019E968C918083D901ED91FC9194
:1059D000E958FF4FD6018D919C91DC019F968C91E7
:1059E0008083D901ED91FC91E858FF4FD6018D914C
:1059F0009C91DC01D0968C918083D901ED91FC9132
:105A0000E758FF4FD6018D919C91DC01D1968C9186
:105A10008083F801118210825301AA0CBB1CAA0CCE
:105A2000BB1CA60CB71C1CC0EA0DFB1D3B96EE0F61
:105A3000FF1FEE0DFF1D808191810E94C501D801DD
:105A40008D919C911197F501E80FF91F3B96EE0F90
:105A5000FF1FEE0DFF1D1182108201968D939C9306
:105A6000D801ED91FC91E530F105F0F2D601ED9110
:105A7000FC9115AA16AA17AA10AECF010E94C50163
:105A8000F6011182108277C092AD83AD981709F0AC
:105A900072C0D8011D921C925301AA0CBB1CAA0C07
:105AA000BB1CA60CB71C1CC0EA0DFB1D3B96EE0FE1
:105AB000FF1FEE0DFF1D808191810E94C501F8013D
:105AC00080819181F501E80FF91F3B96EE0FFF1FD2
:105AD000EE0DFF1D118210820196D8018D939C93CB
