:100000000C94D2000C947F6C0C94B06C0C94E16C4A
:100010000C94126D0C94436D0C94746D0C94A56D3E
:100020000C94D66D0C94FD000C94FD000C94FD0016
:100030000C9469040C94FD000C94FD000C942703AF
:100040000C94FD000C94FD000C94FD000C94FD003C
:100050000C94FD000C94FD000C94FD000C94020324
:100060000C94FD000C9479590C94FD000C94FD0047
:100070000C94FD000C94FD000C94FD000C94FD000C
:100080000C94FD000C94FD000C94FD000C94FD00FC
:100090000C94BA590C94FD000C94FD000C941F6B49
:1000A0000C94FD000C94FD000C94FD000C94FD00DC
:1000B0000C94FD000C94FD000C94FD000C94FD00CC
:1000C0000C94FD000C94FD000C94FD0000212427ED
:1000D0002A2D3033002225282B2E313400202326D0
:1000E000292C2F3205050505030303030101010433
:1000F00004030606060606060606010405010501B8
:1001000003020202020202010202050504040304C2
:1001100004010304070707010208101020408004AF
:1001200008102040020204081020408001028020B4
:100130004004200101020408102001408040800199
:1001400002080408800410040201000008090000ED
:10015000000000000000000000000000000000009F
:10016000000000000000000000000000000000008F
:10017000000000000000000000000000007C3C3E89
:100180005E2B3D3F2F5B5D3B2C2A225C00008106ED
:10019000BA064658925E45661C6B1D6B1E6B076E59
:1001A000456E4A6E11241FBECFEFD1E2DEBFCDBF38
:1001B00018E0A0E0B2E0EAE1FEED00E00BBF02C013
:1001C00007900D92A031B107D9F71BBE13E1A0E152
:1001D000B8E001C01D92A631B107E1F711E0C4EA11
:1001E000D1E004C02297FE010E94D06ECE38D10724
:1001F000C9F70E94FB020C940B6F0C9400000F9344
:100200001F93CF93DF93689F8001699F100D789FA4
:10021000100D1124C8010E941B01EC01009729F068
:1002200060E070E0A8010E948B02CE01DF91CF91C7
:100230001F910F910895CF93DF93BC0182309105F8
:1002400010F462E070E0A0911413B0911513ED0169
:10025000E0E0F0E040E050E021C08881998186171D
:10026000970769F48A819B81309719F09383828381
:1002700004C09093151380931413FE0134C06817C3
:10028000790738F44115510519F08417950708F4DA
:10029000AC01FE018A819B819C01E9012097E9F66E
:1002A00041155105A9F1CA01861B970B049708F463
:1002B000BA01E0E0F0E02AC08D919C91119784177B
:1002C0009507F9F46417750781F412968D919C9146
:1002D0001397309719F09383828304C0909315137A
:1002E00080931413FD0132964CC0CA01861B970BF4
:1002F000FD01E80FF91F6193719302978D939C9311
:1003000040C0FD01828193819C01D9011097A1F623
:100310008091121390911313892B41F48091FA0765
:100320009091FB0790931313809312134091FC0755
:100330005091FD074115510541F44DB75EB78091CD
:10034000F8079091F907481B590B2091121330912F
:100350001313CA01821B930B8617970780F0AB011A
:100360004E5F5F4F8417950750F0420F531F509315
:10037000131340931213F9016193719302C0E0E0EB
:10038000F0E0CF01DF91CF910895CF93DF930097F5
:1003900009F450C0EC0122971B821A82A091141319
:1003A000B0911513109709F140E050E0AC17BD076C
:1003B00008F1BB83AA83FE0121913191E20FF31F63
:1003C000AE17BF0779F48D919C911197280F391FB3
:1003D0002E5F3F4F3983288312968D919C911397FE
:1003E0009B838A834115510571F4D0931513C093F3
:1003F000141320C012968D919C911397AD01009714
:1004000011F0DC01D3CFFA01D383C2832191319162
:10041000E20FF31FCE17DF0769F488819981280F57
:10042000391F2E5F3F4FFA01318320838A819B81E0
:1004300093838283DF91CF910895A0E0B0E0E3E25F
:10044000F2E00C94DC6EEC01A880B980CA80DB80FD
:10045000A114B104C104D10441F484E2A82E89EDB1
:10046000B82E8BE5C82E87E0D82EC601B5012DE148
:1004700033EF41E050E00E94B36E27EA31E440E000
:1004800050E00E944B6E7B018C01C601B5012DE14D
:1004900033EF41E050E00E94B36ECA01B9012CEE87
:1004A00034EF4FEF5FEF0E944B6E6E0D7F1D801F8C
:1004B000911F97FF04C0615070408040904868834E
:1004C00079838A839B839B013F77C901CDB7DEB7D0
:1004D000EAE00C94F86E0E941D0208958EEF97E0FA
:1004E0000E941D020895A0E0B0E08093FE07909363
:1004F000FF07A0930008B09301080895FB01DC01F9
:1005000004C08D910190801921F441505040C8F7EA
:10051000881B990B0895DC0101C06D934150504038
:10052000E0F70895FB01DC018D9101908019011025
:10053000D9F3990B089581E599E00E940E0788236D
:10054000A9F085E599E00E9417578091960B8823C2
:1005500069F085E599E00E944155882339F481E5E9
:1005600099E00E940E07882381F3EBCF08950F9343
:100570001F93CF93DF9300E012E0CBE6D0E0F801C9
:1005800041918F0181E198E0BE010E941B052196F7
:10059000F2E008301F0799F709E012E0C3E9D0E064
:1005A000F80141918F0181E198E0BE010E941B0595
:1005B0002196F2E009311F0799F785E599E062E09D
:1005C00041E021E00E94005985E599E00E9405552F
:1005D00085E599E062E078E00E94A52D85E599E047
:1005E0000E94292F85E599E00E94A445DF91CF91D3
:1005F0001F910F9108950E94AC030E94B7020E94C0
:100600009B02FDCF1F920F920FB60F9211248F9372
:100610009F93AF93BF9380918A1090918B10A0917C
:100620008C10B0918D100196A11DB11D80938A1080
:1006300090938B10A0938C10B0938D10BF91AF91BD
:100640009F918F910F900FBE0F901F9018951F9242
:100650000F920FB60F9211248F939F93AF93BF9376
:1006600080918E1090918F10A0919010B091911068
:100670000196A11DB11D80938E1090938F10A093B1
:100680009010B0939110BF91AF919F918F910F9067
:100690000FBE0F901F90189560918A1070918B106B
:1006A00080918C1090918D1027E0660F771F881F26
:1006B000991F2A95D1F72EE330E040E050E00E94E8
:1006C000916ECA01B9010895AF92BF92CF92DF92A5
:1006D000EF92FF920F931F935B016C0160918A1060
:1006E00070918B1080918C1090918D1047E0660F67
:1006F000771F881F991F4A95D1F72EE330E040E01D
:1007000050E00E94916E79018A0160918A10709187
:100710008B1080918C1090918D1037E0660F771FB1
:10072000881F991F3A95D1F72EE330E040E050E062
:100730000E94916E2E193F09400B510B2A153B0563
:100740004C055D0510F31F910F91FF90EF90DF9026
:10075000CF90BF90AF900895789484B7877F84BF7F
:1007600010928A1010928B1010928C1010928D1093
:1007700084B5826084BD84B5816084BD85B58260A6
:1007800085BD85B5816085BDEEE6F0E08081816044
:100790008083E1E8F0E080818260808380818160F5
:1007A0008083E0E8F0E0808181608083E1EBF0E02D
:1007B000808184608083E1E9F0E0808184608083CF
:1007C000E0EBF0E0808181608083E0E9F0E080810F
:1007D00081608083E4E6F0E080818E7F8083ECE7B7
:1007E000F0E080818F778083808180648083EAE776
:1007F000F0E080818460808380818260808380815A
:10080000806880831092C1001092C9000895909171
:100810001008982B9093100880FF32C080916400DC
:100820008E7F8093640080917C008F7780937C0022
:1008300080917C00806480937C0080917A00846049
:1008400080937A0080917A00826080937A00809110
:100850007A00806880937A00809164008F7780931B
:100860006400809164008B7F8093640080916400B9
:100870008D7F80936400809165008E7F80936500FA
:100880000895282F20959091100892239093100896
:1008900080FF1EC080917A008F7780937A008091CC
:1008A000640081608093640080916400806880931C
:1008B000640080916400846080936400809164008F
:1008C0008260809364008091650081608093650000
:1008D00008951F920F920FB60F920BB60F9211242C
:1008E0002F933F934F935F936F937F938F939F9338
:1008F000AF93BF93EF93FF93F89481E080930A083E
:10090000E0E6F0E080818068808380818F7B808357
:1009100083E060E00E94BE047894FF91EF91BF9164
:10092000AF919F918F917F916F915F914F913F9187
:100930002F910F900BBE0F900FBE0F901F90189528
:10094000282F30E0C901895E9E4FFC0194912C5103
:100950003F4FF9018491882381F0E82FF0E0E453C0
:10096000FF4FE491F0E0662329F48081909589237C
:10097000808308958081892B80830895482F50E0DB
:10098000CA01865B9E4FFC012491CA01895E9E4F7D
:10099000FC0194914C515F4FFA0134913323C1F122
:1009A000222331F1233021F4809180008F7705C01C
:1009B000243031F4809180008F7D8093800018C0B6
:1009C000213019F484B58F7704C0223021F484B526
:1009D0008F7D84BD0DC0263021F48091B0008F77CB
:1009E00005C0273029F48091B0008F7D8093B0003E
:1009F000E32FF0E0EC52FF4FE491F0E0662329F49E
:100A0000808190958923808308958081892B8083BC
:100A10000895FB0120E030E002C02F5F3F4F81913D
:100A20008823D9F7C9010895F999FECF72BD61BD38
:100A3000F89A80B50895F999FECF1FBA72BD61BDCD
:100A400040BD0FB6F894FA9AF99A0FBE08950F9325
:100A50001F93CF93DF938B01BA01DA0140E050E09E
:100A6000C22FD0E019C0F801E40FF51F8081982F44
:100A700092959F708F709A3010F4905D01C0995CD0
:100A80009C938A3010F4805D01C0895C11968C9330
:100A900011974F5F5F4F12964C175D0724F3CC0FF1
:100AA000DD1FC60FD71F1882DF91CF911F910F91C5
:100AB000089528E00E94270508958F929F92AF9293
:100AC000BF92CF92DF92EF92FF920F931F93CF933B
:100AD000DF93992401C09394FB01E90DF11D8081FE
:100AE00080538A30C0F35B01EE24FF24870120C0CD
:100AF0002AE030E040E050E00E944B6E0894C11CB8
:100B0000D11CCC16DD06A4F3282D332727FD309504
:100B100020533040442737FD4095542F0E944B6EA0
:100B2000E60EF71E081F191F9A940894A11CB11C09
:100B3000F5018080882D80538A3050F461E070E0A8
:100B400080E090E0CC24DD24C92DD0E02197D9CFDE
:100B5000B701C801DF91CF911F910F91FF90EF90E6
:100B6000DF90CF90BF90AF909F908F900895FB0142
:100B70009081892F80538A3038F4292F332727FD1D
:100B80003095205330400DC0892F8154863018F0A5
:100B900020E030E007C0292F332727FD3095275369
:100BA000304031966081862F80538A3030F4772729
:100BB00067FD7095605370400CC0862F815486305D
:100BC00018F060E070E005C0772767FD7095675307
:100BD0007040A4E0220F331FAA95E1F7862F820F01
:100BE00008956833A1F1693380F4643341F16533CA
:100BF00038F4623301F1633300F56133D1F417C087
:100C0000663309F1673308F51CC0633441F164347D
:100C100038F4613401F1623400F5693351F419C0DC
:100C2000653409F16534E8F0663419F41EC081E0DA
:100C30001DC080E01BC082E019C083E017C084E0C3
:100C400015C085E013C086E011C087E00FC088E0C2
:100C50000DC089E00BC08AE009C08BE007C08CE0C2
:100C600005C08DE003C08EE001C08FE04733A1F1E5
:100C7000483380F4433341F1443338F44133F1F0E5
:100C8000423300F54033E1F51BC0453309F14633EB
:100C900008F51CC0423441F1433438F4493301F1C2
:100CA0004933E0F0413461F51DC0443409F1443466
:100CB000E8F04534F9F04634F9F0089591E01DC0AC
:100CC00090E01BC092E019C093E017C094E015C0FB
:100CD00095E013C096E011C097E00FC098E00DC0FA
:100CE00099E00BC09AE009C09BE007C09CE005C0FA
:100CF0009DE003C09EE001C09FE08295807F890F48
:100D0000089508958FE261E00E94A00484E261E00A
:100D10000E94A00485E261E00E94A0048FE261E0ED
:100D20000E94BE0484E261E00E94BE0485E261E0AC
:100D30000E94BE0408950F931F93162F042F8FE275
:100D400061E00E94A00484E261E00E94A00485E2C8
:100D500061E00E94A0048FE261E00E94BE0484E290
:100D6000612F0E94BE0485E2602F0E94BE041F9185
:100D70000F91089510925109109253090895EF921E
:100D8000FF920F931F93CF93DF93EC017A018B01B6
:100D900077FF0CC08DE268810E94FB591095009589
:100DA000F094E094E11CF11C011D111DC801B70174
:100DB0002AE030E040E050E008810E940C5ADF91C8
:100DC000CF911F910F91FF90EF9008950F931F9374
:100DD000FC01DA018B012115310529F4842F608192
:100DE0000E94FB590EC02A30310519F40E94BF063B
:100DF00008C030E040E050E0BD01C80100810E9421
:100E00000C5A1F910F910895FC0180810E94655931
:100E10000895FC0180810E942A590895FC01808177
:100E20000E9406590895FC016183613019F0633016
:100E300099F514C08081882311F486E10DC086E005
:100E400061E00E94A00486E061E00E94BE048AE2A4
:100E500061E00E94A0048AE261E005C080818823ED
:100E600029F486E160E00E94BE04089581E198E0E3
:100E700060E040E00E949B0686E061E00E94A004E2
:100E800086E060E00E94BE048AE261E00E94A00465
:100E90008AE260E00E94BE040895FC0180810E9405
:100EA000AE5A0895FC01262F608360E070E0CB010C
:100EB000BA01422F0E94CC5A86E161E00E94A00450
:100EC00008950F931F93CF93DF93DC018B01EC0107
:100ED000C658DD4F1982188240E0BE0106C04F5F40
:100EE0002F5F3F4FFB0131832083FB012081318144
:100EF000F801E20FF31F8081882389F7469583E08C
:100F000090E09983888390E0ED01C658DD4F50E072
:100F10000BC0FD01E20FF31FE857FD4F8081980FD2
:100F20002F5F3F4F39832883288139812417350764
:100F300080F3892F8095A40FB51FA957BD4F8C93BF
:100F4000DF91CF911F910F910895AF92BF92CF92F1
:100F5000DF92EF92FF920F931F93CF93DF937C0169
:100F60008B0106551F4FD8018C910A5A1040F80189
:100F7000E855FF4F813009F024C1C22EDD24DA018B
:100F8000AC0DBD1D83E28C938081813009F446C095
:100F9000813020F0823009F038C2AAC011961C922C
:100FA000119701571F4FF80181918F0112968C9371
:100FB000129780810059104013968C931397F70174
:100FC000E658FD4F11821082EF01FCE7CF2EF2E0D0
:100FD000DF2ECE0CDF1CB70162587D4FAD010FC074
:100FE000FA01E20FF31FA00FB11FA20FB31F1C964F
:100FF0008C91848388819981019699838883288143
:101000003981F601A081B181FB0180819181019636
:101010008A1B9B0B2817390718F3F7C111968C937D
:10102000B70166587D4FDB011D921C92EB0110C089
:10103000FA01EA0FFB1FEC0DFD1DA00FB11FA55714
:10104000BF4F8C918283888199810196998388838F
:10105000A881B981A430B10558F3FB011182108237
:10106000E701C658DD4F10C0FA01EA0FFB1FEC0D77
:10107000FD1DA00FB11FA957BF4F8C91868388819A
:101080009981019699838883A881B981A430B1059B
:1010900058F319821882E701C658DD4FECE7AE2EEF
:1010A000E2E0BE2EAE0CBF1C970122583D4F11C08E
:1010B000FA01E60FF71FEC0DFD1DA00FB11FA60FE3
:1010C000B71F1C968C91828788819981019699839C
:1010D000888368817981F501A081B181F9018081DE
:1010E000918101968A1B9B0B6817790708F38DC1C4
:1010F00011968C93C0E0D0E0D701A658BD4F06C032
:10110000E9016F5F7F4F11967C936E936D917C9197
:101110001197F801E60FF71FEF56FF4F80819E01F0
:101120002F5F3F4F833261F71D921C92E701C65833
:10113000DD4F10C0FA01EA0FFB1FEC0DFD1DA00FE3
:10114000B11FAF56BF4F8C918283888199810196E0
:1011500099838883A881B981A217B30758F31982AC
:101160001882E701C658DD4F7CE7A72E72E0B72E44
:10117000AE0CBF1C8EE792E0E80EF91E13C0FA0118
:10118000E60FF71FE20FF31FEC0DFD1DA00FB11FBF
:10119000A60FB71F1C968C91828388819981019636
:1011A0009983888368817981F501A081B181F701F4
:1011B0008081918101968A1B9B0B68177907F8F251
:1011C00024C18081813009F446C0813020F0823012
:1011D00009F01BC1AEC030E0FA01E20FF31F10822C
:1011E00001571F4FD8018D918D0181838C9100593A
:1011F00010408283F701E658FD4F11821082EF0103
:101200006CE7C62E62E0D62ECE0CDF1CEEE7F2E0D5
:10121000EE0EFF1E11C0FA01E60FF71FE20FF31FDB
:10122000A00FB11FA60FB71F1C968C9183838881D6
:10123000998101969983888368817981F601A081DB
:10124000B181F7018081918101968A1B9B0B681700
:10125000790708F3DAC030E0FA01E20FF31F808368
:10126000B70166587D4FDB011D921C92EB0110C047
:10127000FA01EA0FFB1FE20FF31FA00FB11FA557E2
:10128000BF4F8C918183888199810196998388834E
:10129000A881B981A430B10558F3FB0111821082F5
:1012A000E701C658DD4F10C0FA01EA0FFB1FE20F3D
:1012B000F31FA00FB11FA957BF4F8C918583888161
:1012C0009981019699838883A881B981A430B10559
:1012D00058F319821882E701C658DD4F9CE7C92EE2
:1012E00092E0D92ECE0CDF1C8EE792E0E80EF91EBC
:1012F00011C0FA01E60FF71FE20FF31FA00FB11F95
:10130000A60FB71F1C968C918187888199810196C1
:101310009983888368817981F601A081B181F70181
:101320008081918101968A1B9B0B6817790708F3CE
:101330006CC0C22EDD24FA01EC0DFD1D8083C0E0DF
:10134000D0E0D701A658BD4F06C0E9016F5F7F4FBF
:1013500011967C936E936D917C911197F801E60F35
:10136000F71FEF56FF4F80819E012F5F3F4F833263
:1013700061F71D921C92E701C658DD4F10C0FA01BB
:10138000EA0FFB1FEC0DFD1DA00FB11FAF56BF4FA5
:101390008C91818388819981019699838883A88122
:1013A000B981A217B30758F319821882E701C6580A
:1013B000DD4F8CE7A82E82E0B82EAE0CBF1C8EE766
:1013C00092E0E80EF91E13C0FA01E60FF71FE20FD4
:1013D000F31FEC0DFD1DA00FB11FA60FB71F1C962C
:1013E0008C91818388819981019699838883688112
:1013F0007981F501A081B181F70180819181019608
:101400008A1B9B0B68177907F8F2DF91CF911F9128
:101410000F91FF90EF90DF90CF90BF90AF90089525
:101420003F924F925F926F927F928F929F92AF9274
:10143000BF92CF92DF92EF92FF920F931F93DF93B1
:10144000CF9300D000D0CDB7DEB76B014A01790150
:10145000AA24A39410E022E730E0C20ED31E21E3B9
:10146000422E9DE7792E83E3382EBEE56B2EADE547
:101470005A2E30C1D401A60FB71F8C91813111F0C3
:1014800090E04AC04C92F70180818F5F80838C91FD
:101490007C926F5F7F4F9401260F371F3C832B8315
:1014A00061507040FB013296FA83E98320C0EB81E2
:1014B000FC81B180418349815A814F5F5F4F3296F1
:1014C000FC83EB8329813A812E5F3F4F3A83298346
:1014D000F70180819801280F311DC901F601208193
:1014E0003181820F931F48175907A8F48B2DEB8188
:1014F000FC8140818083F70180819801280F311D94
:10150000C901F60120813181820F931F29813A811F
:101510002817390760F291E08C91833109F04DC0B2
:10152000992309F04AC03C92F70180818F5F808344
:101530008C917C926F5F7F4F9401260F371F3C8305
:101540002B8361507040FB013296FA83E98320C0FF
:10155000EB81FC81B180418349815A814F5F5F4FAC
:101560003296FC83EB8329813A812E5F3F4F3A8389
:101570002983F70180819801280F311DC901F601E7
:1015800020813181820F931F48175907A8F48B2DB2
:10159000EB81FC8140818083F70180819801280FD5
:1015A000311DC901F60120813181820F931F2981EC
:1015B0003A812817390760F291E08C918E3709F053
:1015C0004DC0992309F04AC06C92F70180818F5F6A
:1015D00080838C917C926F5F7F4F9401260F371F21
:1015E0003C832B8361507040FB013296FA83E98380
:1015F00020C0EB81FC81B180418349815A814F5FDA
:101600005F4F3296FC83EB8329813A812E5F3F4FF7
:101610003A832983F70180819801280F311DC90180
:10162000F60120813181820F931F48175907A8F4D2
:101630008B2DEB81FC8140818083F70180819801B3
:10164000280F311DC901F60120813181820F931FBE
:1016500029813A812817390760F291E02C912D37C2
:10166000C1F59923B1F55C92F70180818F5F80838A
:101670008C912C936F5F7F4FF401E60FF71F6F5F24
:101680007F4F17C0B1804183AB014F5F5F4F3296F0
:101690006E5F7F4FD7018C919801280F311DC901D2
:1016A000D6012D913C91820F931F4817590788F45A
:1016B0008B2D40818083D7018C919801280F311D9B
:1016C000C901D6012D913C91820F931F68177907AC
:1016D000C8F2A3946A2D70E0F70180819801280F69
:1016E000311DC901D6012D913C91820F931F6817BE
:1016F000790708F4BFCE0F900F900F900F90CF9105
:10170000DF911F910F91FF90EF90DF90CF90BF90EE
:10171000AF909F908F907F906F905F904F903F9091
:101720000895DF92EF92FF920F931F93CF93DF9371
:10173000890180E090E0F3E1DF2EEEE7EE2E31E16B
:10174000F32E37C02F5F3F4F9C919D3731F011969C
:10175000319624173507B0F32DC02417350750F5FF
:10176000E9012196E60FF71F8181833361F084330D
:1017700018F4813369F405C08D3549F08E3541F494
:1017800004C0FC9205C0DC9203C0EC9201C09C93A3
:1017900041505040F901E00FF11FE60FF71F02C062
:1017A000818180832F5F3F4F3196CE01241735070B
:1017B000B8F39C012417350738F4F901E00FF11F45
:1017C000DB01AE0FBF1FC0CFDF91CF911F910F91F3
:1017D000FF90EF90DF900895EF92FF920F931F9389
:1017E000CF93DF938C01EB017A01FC01E658FD4FAA
:1017F0002D5F3F4F3183208323503040A0E0B0E085
:10180000AF010BC0FE01E60FF71F8081A80FB11DCD
:101810006F5F7F4FFA0171836083FA01608171818C
:101820006E157F0578F3AF3FB10521F0AF3F11F0A2
:1018300081E008C008521E4FC20FD31F8C81F801EF
:10184000808380E0DF91CF911F910F91FF90EF9007
:101850000895EF92FF920F931F93CF93DF93EC01C4
:10186000CA5BDD4FE8808DEEE80E24978881C25474
:10187000D240813009F0C9C0CD5DDE4FF880C3523F
:10188000D140FA948E0106581D4FD8011D921C922A
:10189000B8012F2D30E087E290E0289FA001299F1A
:1018A000500D389F500D11244C0F5D1F11C0FA01CF
:1018B000EA0FFB1FE05AFF4FAC0FBD1FA85BBD4FE7
:1018C0008C918083FB01808191810196918380833B
:1018D000FB01A081B181A230B10548F3D8011D926E
:1018E0001C92AE0146585D4F2F2D30E087E290E00C
:1018F000289FB001299F700D389F700D11246C0F27
:101900007D1F11C0FB01EA0FFB1FEE59FF4FAC0F0B
:10191000BD1FA65BBD4F8C918083FA0180819181B0
:10192000019691838083FA01A081B181A430B10531
:1019300048F311821082BE0166587D4F2F2D30E092
:1019400087E290E0289FA001299F500D389F500DFD
:1019500011244C0F5D1F12C0FA01EA0FFB1FEA5958
:10196000FF4FAC0FBD1FA25BBD4F8C918083DB018D
:101970008D919C91119701968D939C93FB01A08171
:10198000B181A430B10540F387E290E0289FF001D7
:10199000299FF00D389FF00D1124EC0FFD1FEA5721
:1019A000FF4FCE5ADD4F8881C255D2408083E65822
:1019B000F040AE014A5B5D4FDA018D919C910D972D
:1019C00020F1DB011D921C929E0126583D4FBA0169
:1019D000AF0111C0FA01EA0FFB1FE659FF4FAC0F30
:1019E000BD1FAD5ABD4F8C918083F90180819181DB
:1019F000019691838083F901A081B181FB018081EF
:101A000091810C97A817B90728F3CE5BDD4F888129
:101A1000C254D2408250843008F047C1CD5DDE4FC1
:101A2000F880C352D140FA948E0106581D4FD80158
:101A30001D921C92B8012F2D30E087E290E0289F84
:101A4000A001299F500D389F500D11244C0F5D1F90
:101A500011C0FA01EA0FFB1FE05AFF4FAC0FBD1F88
:101A6000A85BBD4F8C918083FB01808191810196A1
:101A700091838083FB01A081B181A230B10548F33D
:101A8000D8011D921C92AE0146585D4F2F2D30E0BB
:101A900087E290E0289FB001299F700D389F700D5C
:101AA00011246C0F7D1F11C0FB01EA0FFB1FEE59C3
:101AB000FF4FAC0FBD1FA65BBD4F8C918083FA0119
:101AC00080819181019691838083FA01A081B18107
:101AD000A430B10548F311821082AE0146585D4F23
:101AE0002F2D30E087E290E0289FB001299F700DF4
:101AF000389F700D11246C0F7D1F12C0FB01EA0F7F
:101B0000FB1FEA59FF4FAC0FBD1FA25BBD4F8C916D
:101B10008083DA018D919C91119701968D939C930E
:101B2000FA01A081B181A430B10540F31182108285
:101B3000AE0146585D4F0E2D10E02F2D30E087E2AC
:101B400090E0289FB001299F700D389F700D1124DF
:101B50006C0F7D1F12C0FB01EA0FFB1FE659FF4F00
:101B6000AC0FBD1FAE5ABD4F8C918083DA018D91B1
:101B70009C91119701968D939C93FA01A081B1815C
:101B8000A017B10740F311821082BE0166587D4F45
:101B90002F2D30E087E290E0289FA001299F500D73
:101BA000389F500D11244C0F5D1F14C0FA01EA0F2D
:101BB000FB1FE258FF4FAC0FBD1FA00FB11FAD5A66
:101BC000BD4F8C918083DB018D919C911197019683
:101BD0008D939C93FB01A081B181A230B10530F3BC
:101BE00087E290E0289FD001299FB00D389FB00D6B
:101BF0001124AC0FBD1FA058BF4FFE01EE0DF11D0B
:101C0000EB5AFD4F81918D9380818C93A158B04008
:101C1000FB0111821082AE0146585D4FBD0114C018
:101C2000FB01EA0FFB1FEE57FF4FAC0FBD1FA00FCC
:101C3000B11FA95ABD4F8C918083DA018D919C917F
:101C4000119701968D939C93FA01A081B181A230E6
:101C5000B10530F311821082BE0166587D4F87E2D4
:101C600090E0289FA001299F500D389F500D11240E
:101C70004C0F5D1F14C0FA01EA0FFB1FEC57FF4F1A
:101C8000AC0FBD1FA00FB11FA75ABD4F8C91808311
:101C9000DB018D919C91119701968D939C93FB0193
:101CA000A081B181A230B10530F3DF91CF911F91B6
:101CB0000F91FF90EF900895CF92DF92EF92FF92F5
:101CC0000F931F93CF93DF93EC016B017A01B9015E
:101CD000FC01E658FD4F0D5F1F4F11830083035039
:101CE0001040A0E0B0E09F010BC0F601E40FF51F2B
:101CF0008081A80FB11D4F5F5F4FF9015183408371
:101D0000F901408151814617570778F3AF3FB1057C
:101D100019F0AF3F09F05AC0F601E00FF11F9581AD
:101D2000D70115968C911597981709F04FC0968199
:101D300016968C91981709F049C09B01201B310B16
:101D40002930310529F48781882309F442C03EC037
:101D500087818823D9F5FE01E658FD4F1182108254
:101D6000BF012950304012C0FE01E40FF51FE85BAF
:101D7000FD4FD601A40FB51FA00FB11F18968C916F
:101D800080834F5F5F4FFB0151834083DB014D91A7
:101D90005C914217530740F3CA5BDD4F39832883B8
:101DA000C654D240F70185818E3491F48681843403
:101DB00079F42230310530F0FE01ED5DFE4F808177
:101DC0008F5F8083CE010E94290C02C081E001C098
:101DD00080E0DF91CF911F910F91FF90EF90DF9006
:101DE000CF900895FC01E658FD4F11821082DF016B
:101DF0000BC0FC01E20FF31FE857FD4F10822F5F6D
:101E00003F4F11963C932E932D913C9111972E317B
:101E1000310578F30895CF92DF92EF92FF920F93FE
:101E20001F93CF93DF936C01FC01E658FD4F1182A5
:101E300010828F01E62EFF24E701CC0FDD1FCC0FAF
:101E4000DD1FCE0DDF1D1CC0EC0FFD1F3B96EE0FFE
:101E5000FF1FEC0DFD1D808191810E94C501D801FD
:101E60008D919C911197FE01E80FF91F3B96EE0FA3
:101E7000FF1FEC0DFD1D1182108201968D939C9326
:101E8000D801ED91FC91E530F105F0F28701000FEA
:101E9000111F0C0D1D1D075B1F4FD801ED91FC910B
:101EA00015AA16AA17AA10AECF010E94C501F80103
:101EB00011821082F601ED5AFF4F8081815080839C
:101EC000DF91CF911F910F91FF90EF90DF90CF9016
:101ED0000895AF92BF92CF92DF92FF920F931F931C
:101EE000CF93DF936C01FF2460E070E08C01065813
:101EF0001D4FD8016D937C93EB01AA96CC0FDD1F8B
:101F0000CC0DDD1D23C05F010894A11CB11CA8816C
:101F1000B981A555BF4FBB96EE0FFF1FEC0DFD1D00
:101F20000190F081E02DE555FF4F2D913D914D91B0
:101F30005C9180819181A281B38182179307A4076C
:101F4000B50754F4F394F801B182A082D801ED9161
:101F5000FC91E430F105B8F2B4E0FB1621F4F62E62
:101F600065E070E002C0F62EF3946F5F7F4F65303E
:101F7000710508F4BECF0F2D10E0065D1F4F000F56
:101F8000111F0C0D1D1DF801808191810E94C5015A
:101F9000D8011D921C928F2DDF91CF911F910F912F
:101FA000FF90DF90CF90BF90AF900895AF92BF9217
:101FB000CF92DF92FF920F931F93CF93DF936C0129
:101FC000FF2460E070E08C0106581D4FD8016D932E
:101FD0007C93EB01AA96CC0FDD1FCC0DDD1D23C039
:101FE0005F010894A11CB11CA881B981A555BF4F00
:101FF000BB96EE0FFF1FEC0DFD1D0190F081E02D53
:10200000E555FF4F2D913D914D915C9180819181DE
:10201000A281B381281739074A075B0754F4F39468
:10202000F801B182A082D801ED91FC91E430F10574
:10203000B8F2B4E0FB1621F4F62E65E070E002C0C1
:10204000F62EF3946F5F7F4F6530710508F4BECFB5
:102050000F2D10E0065D1F4F000F111F0C0D1D1DF1
:10206000F801808191810E94C501D8011D921C92C6
:102070008F2DDF91CF911F910F91FF90DF90CF9027
:10208000BF90AF9008950F931F93CF93DF938C0170
:10209000FC01E658FD4F11821082EF0116C0BA967E
:1020A000EE0FFF1FE00FF11F808191810E94C5019B
:1020B000888199818A96FC01EE0FFF1FE00FF11FC6
:1020C00011821082899799838883E881F981E530AC
:1020D000F10528F3DF91CF911F910F910895AF92F1
:1020E000BF92CF92DF92EF92FF920F931F93CF9305
:1020F000DF93EC0109E4A02EB12CA80EB91EEE244A
:10210000FF241AE7C12E12E0D12EC80ED91ED60127
:102110001D921C928701000F111F000F111F0E0D41
:102120001F1D1CC0E00FF11F3B96EE0FFF1FEC0FB1
:10213000FD1F808191810E94C501F60180819181FE
:10214000F801E80FF91F3B96EE0FFF1FEC0FFD1F84
:10215000118210820196D6018D939C93D601ED9148
:10216000FC91E530F105F0F2D501ED91FC9115AA55
:1021700016AA17AA10AECF010E94C501F50111924F
:1021800011925F010894E11CF11CF5E0EF16F104D7
:1021900009F0BDCFCD5ADF4F1882C65ADD4F1882E5
:1021A00022961882DF91CF911F910F91FF90EF90AF
:1021B000DF90CF90BF90AF900895AF92BF92CF9233
:1021C000DF92EF92FF920F931F93CF93DF93EC0177
:1021D000FC01E355FD4F108260E070E01AE7A12E8C
:1021E00012E0B12EA80EB91E7F01D5016D937C932C
:1021F0008B01000F111F0C0F1D1F075B1F4F28C005
:10220000D8018D919C916F010894C11CD11CF601DD
:10221000EE0FFF1FEC0FFD1FE75BFF4F0190F081FA
:10222000E02DDC01D5962D913D914D915C91D89793
:1022300085A996A9A7A9B0AD281739074A075B0752
:102240006CF4F70180818F5F8083D501CD92DC92A1
:10225000D501ED91FC91E430F10590F2F701808118
:10226000843021F4608365E070E004C0862F8F5FC6
:10227000D7018C936F5F7F4F6530710508F4B5CF40
:10228000FE01E658FD4F118210828F017DEAE72E94
:1022900072E0F72EEC0EFD1E2FC0F701808190E05A
:1022A000FC01EE0FFF1FEE0FFF1FE80FF91FE20FFB
:1022B000F31F3B96EE0FFF1FEC0FFD1F80819181F6
:1022C0000E94C501D7018C9190E0FC01EE0FFF1F29
:1022D000EE0FFF1FE80FF91FD8018D919C91119708
:1022E000E80FF91F3B96EE0FFF1FEC0FFD1F118249
:1022F000108201968D939C93F801208131812530C5
:10230000310558F2D701EC91F0E0EE0FFF1FEC0F12
:10231000FD1FE75BFF4F0190F081E02D15AA16AA83
:1023200017AA10AEEC91F0E0EE0FFF1FEC0FFD1FAF
:10233000E75BFF4F808191810E94C501D701EC913D
:10234000F0E0EE0FFF1FEC0FFD1FE75BFF4F118268
:102350001082FE01ED5AFF4F808181508083C1556C
:10236000DD4F1882DF91CF911F910F91FF90EF9079
:10237000DF90CF90BF90AF9008952F923F924F92F1
:102380005F926F927F928F929F92AF92BF92CF9205
:10239000DF92EF92FF920F931F93DF93CF93CDB70E
:1023A000DEB760970FB6F894DEBF0FBECDBF7C01DD
:1023B0006B01FC01E658FD4F118210822FEA32E0DA
:1023C000E20EF31ED7018C9121E53DEFE20EF31EE4
:1023D000882311F1DF0110C0F901EE0FFF1FEE0D90
:1023E000FF1DE75BFF4F80819181892B59F02F5FA3
:1023F0003F4F11963C932E932D913C911197253090
:10240000310550F34DEA52E0E40EF51ED7012C934E
:10241000E3E5FDEFEE0EFF1E2AE732E0E20EF31ECB
:10242000D7011D921C92E8ECFFEFEE0EFF1ED701C4
:102430008C91EEEBFDEFEE0EFF1E813079F026E47D
:1024400032E0E20EF31ED7018D919C91EAEBFDEF95
:10245000EE0EFF1E0C9770F50C94B72320E832E0C7
:10246000E20EF31ED7018C91E0E8FDEFEE0EFF1EA9
:10247000882379F426E432E0E20EF31ED7018D9131
:102480009C91EAEBFDEFEE0EFF1E059798F40C947D
:10249000B723813079F426E432E0E20EF31ED7014F
:1024A0008D919C91EAEBFDEFEE0EFF1E0B9710F461
:1024B0000C94B72300E010E0662488247724992444
:1024C000B70166587D4FE2E44E2EE2E05E2E4E0CE0
:1024D0005F1C51E8252E52E0352E2E0C3F1C970133
:1024E00020583D4F3E872D87DB011D921C92F8013D
:1024F000EE0FFF1FEE0DFF1DE75BFF4F0190F08118
:10250000E02D85A996A9A7A9B0AD181619061A0637
:102510001B060CF08CC3D2018C91813009F0D0C124
:10252000AD85BE858C91882309F0E1C0D601149653
:102530009C9114978081981709F079C3AA24BB2431
:1025400016968C91833219F431E0A32EB12C9601AA
:102550002A0D3B1DD90116968C91DB011D921C9210
:102560008130A9F0813020F0823009F088C070C03D
:102570009389D90117968C911797981709F07FC006
:10258000948918968C91981709F079C07CC0FB014A
:1025900011821082A801440F551F4E0D5F1D475B2D
:1025A0005F4F17C0FA01A081B181A20FB31FF601DE
:1025B000E20FF31FEA0DFB1D1B969C918781981774
:1025C00019F0882483940BC02F5F3F4FDB012D93BC
:1025D0003C93FB01208131812430310518F3DB016C
:1025E0001D921C92A801440F551F4E0D5F1D475BA5
:1025F0005F4F14C0FA01A081B181A20FB31FF60191
:10260000E20FF31FEA0DFB1D1F969C91838598171F
:10261000A1F52F5F3F4FDB012D933C93FB01208100
:1026200031812430310530F325C0992787FD9095FD
:10263000F601E40FF51FEA0DFB1D278130E082173C
:102640009307D9F44F5F5F4FFB015183408307C06D
:10265000D801AA0FBB1FAE0DBF1DA75BBF4FFB016B
:1026600040815181ED91FC911197E40FF51F85890F
:102670008332D9F6882039F002C088248394F1E0AF
:102680006F1609F0D4C2702E21E0A216B10479F4BD
:10269000E02FF0E0EE0FFF1FEE0DFF1DE75BFF4F99
:1026A0000190F081E02DD60115968C9182AFE72D37
:1026B000F0E0EE0FFF1FEE0DFF1DE75BFF4FA08167
:1026C000B181DB968C91DB978F5FDB968C930190C9
:1026D000F081E02DD60112962C91129783A994A92E
:1026E000820F911D94AB83AB15969C90E3C0813013
:1026F00009F09DC2D6011A969C911A97808198176D
:1027000009F095C2AA24BB241C968C91833219F43B
:10271000B1E0AB2EB12C96012A0D3B1DD9011C96C0
:102720008C91DB011D921C928130A9F0813020F048
:10273000823009F088C070C09389D9011D968C91B0
:102740001D97981709F07FC094891E968C91981751
:1027500009F079C07CC0FB0111821082A801440FEE
:10276000551F4E0D5F1D475B5F4F17C0FA01A081DB
:10277000B181A20FB31FF601E20FF31FEA0DFB1D9B
:102780001B969C918585981719F0882483940BC01B
:102790002F5F3F4FDB012D933C93FB012081318163
:1027A0002430310518F3DB011D921C92A801440F5F
:1027B000551F4E0D5F1D475B5F4F14C0FA01A0818E
:1027C000B181A20FB31FF601E20FF31FEA0DFB1D4B
:1027D0001F969C9181899817A1F52F5F3F4FDB01D0
:1027E0002D933C93FB01208131812430310530F35E
:1027F00025C0992787FD9095F601E40FF51FEA0D96
:10280000FB1D258530E082179307D9F44F5F5F4F9A
:10281000FB015183408307C0D801AA0FBB1FAE0D37
:10282000BF1DA75BBF4FFB0140815181ED91FC9122
:102830001197E40FF51F85898332D9F6882039F086
:1028400002C088248394F1E06F1609F0F0C1702E65
:1028500021E0A216B10479F4E02FF0E0EE0FFF1FA3
:10286000EE0DFF1DE75BFF4F0190F081E02DD601DB
:102870001B968C9182AFE72DF0E0EE0FFF1FEE0D5F
:10288000FF1DE75BFF4FA081B181DB968C91DB9749
:102890008F5FDB968C930190F081E02DD601189626
:1028A0002C91189783A994A9820F911D94AB83ABA7
:1028B0001B969C909A94B4E0B91508F0B4C1F8C680
:1028C0008250843008F0B3C1D1018C91882309F083
:1028D000D2C0D6011B969C911B978081981709F056
:1028E000A6C1AA24BB241D968C91833219F431E031
:1028F000A32EB12C96012A0D3B1DD9011D968C915A
:10290000DB011D921C928130A9F0813020F08230D1
:1029100009F088C070C09389D9011E968C911E97CA
:10292000981709F07FC094891F968C91981709F029
:1029300079C07CC0FB0111821082A801440F551F91
:102940004E0D5F1D475B5F4F17C0FA01A081B1813B
:10295000A20FB31FF601E20FF31FEA0DFB1D1B963A
:102960009C918685981719F0882483940BC02F5F5B
:102970003F4FDB012D933C93FB01208131812430BB
:10298000310518F3DB011D921C92A801440F551F5D
:102990004E0D5F1D475B5F4F14C0FA01A081B181EE
:1029A000A20FB31FF601E20FF31FEA0DFB1D1F96E6
:1029B0009C9182899817A1F52F5F3F4FDB012D93E2
:1029C0003C93FB01208131812430310530F325C057
:1029D000992787FD9095F601E40FF51FEA0DFB1D81
:1029E000268530E082179307D9F44F5F5F4FFB01D4
:1029F0005183408307C0D801AA0FBB1FAE0DBF1D76
:102A0000A75BBF4FFB0140815181ED91FC91119774
:102A1000E40FF51F85898332D9F6882039F002C08A
:102A200088248394F1E06F1609F001C1702E21E033
:102A3000A216B10479F4E02FF0E0EE0FFF1FEE0DC7
:102A4000FF1DE75BFF4F0190F081E02DD6011C9642
:102A50008C9182AFE72DF0E0EE0FFF1FEE0DFF1D12
:102A6000E75BFF4F0190F081E02D83AD8F5F83AF77
:102A7000F6019484D3C0823009F0D9C0D6015196B2
:102A80009C9151978081981709F0D1C0AA24BB244A
:102A900053968C91833219F4B1E0AB2EB12C960190
:102AA0002A0D3B1DD90153968C91DB011D921C927E
:102AB0008130A9F0813020F0823009F088C070C0E8
:102AC0009389D90154968C915497981709F07FC037
:102AD000948955968C91981709F079C07BC0FB01B9
:102AE00011821082A801440F551F4E0D5F1D475BD8
:102AF0005F4F17C0FA01A081B181A20FB31FF60189
:102B0000E20FF31FEA0DFB1D1B969C918489981719
:102B100019F0882483940BC02F5F3F4FDB012D9366
:102B20003C93FB01208131812430310518F3DB0116
:102B30001D921C92A801440F551F4E0D5F1D475B4F
:102B40005F4F14C0FA01A081B181A20FB31FF6013B
:102B5000E20FF31FEA0DFB1D1F969C91808D9817C5
:102B6000A1F52F5F3F4FDB012D933C93FB012081AB
:102B700031812430310530F325C0992787FD9095A8
:102B8000F601E40FF51FEA0DFB1D248930E08217E2
:102B90009307D9F44F5F5F4FFB015183408307C018
:102BA000D801AA0FBB1FAE0DBF1DA75BBF4FFB0116
:102BB00040815181ED91FC911197E40FF51F8589BA
:102BC0008332D9F6882031F002C088248394F1E062
:102BD0006F1669F5702E21E0A216B10479F4E02F8A
:102BE000F0E0EE0FFF1FEE0DFF1DE75BFF4F0190C2
:102BF000F081E02DD60152968C9182AFE72DF0E066
:102C0000EE0FFF1FEE0DFF1DE75BFF4F0190F08100
:102C1000E02D83AD8F5F83AFF60192889A94F4E044
:102C2000F91508F445C505E010E0662463940F5FCC
:102C30001F4F0530110508F457CC2AE732E0E20EA9
:102C4000F31ED7011D921C92E6E8FDEFEE0EFF1E6B
:102C5000662009F015C6870103551D4FD8017C90E9
:102C6000EFEAF2E0EE0EFF1E81E0D7018C93E4EA7A
:102C7000FDEFEE0EFF1ED7018C91EDEAFFEFEE0E99
:102C8000FF1E853028F0C7010E94DD10D8017C901E
:102C9000F701ED5AFF4F80818F5F8083A72CBB2403
:102CA00081E090E06EE370E00E94FF00FC012501EE
:102CB000440C551C4E0C5F1C29E430E0420E531EA0
:102CC000D2018D939C93009709F4F8C522E432E079
:102CD000E20EF31ED7018C912EEB3DEFE20EF31EB8
:102CE000813009F084C240E852E0E40EF51ED701BD
:102CF0008C9120E83DEFE20EF31E882309F022C1FB
:102D000012A6D201ED91FC91D60114968C9180838C
:102D1000F201008111810E944C03D801D5966D9378
:102D20007D938D939C93D897F701E658FD4F1182C0
:102D300010829F01A20111C0FA01608171816A0FA6
:102D40007B1FAC0DBD1D8C91DB0119968C93F90195
:102D500080819181019691838083F901A081B18165
:102D6000A230B10548F340E050E0D60116968C91B0
:102D7000833211F441E050E0D501AA0FBB1FAE0D24
:102D8000BF1DA75BBF4F2D913C911197B601640FFA
:102D9000751FFB018681F90181A7970126583D4FD8
:102DA000F901118210820D911C911197F80181A5F2
:102DB000813089F0813020F0823009F089C063C011
:102DC000FB018781F801838BED91FC91DB01189663
:102DD0008C91848B7DC0F901118210824901BD0163
:102DE00014C0FB01008111810A0F1B1FAC0DBD1D1A
:102DF000A40FB51F17968C91D8011B968C93F401E4
:102E000080819181019691838083F401A081B181B9
:102E1000A430B10530F3D9011D921C9297012658B8
:102E20003D4FB501660F771F6E0D7F1D675B7F4FAE
:102E300014C0FB01008111810A0F1B1FAC0DBD1DC9
:102E4000A40FB51F1B968C91D8011F968C93F90186
:102E500080819181019691838083F901A081B18164
:102E6000A430B10530F334C0ED91FC911197E80F17
:102E7000F91F258BFB0180819181019691838083CD
:102E8000459710F00CC0B901FB0180819181F601DA
:102E9000E80FF91FE40FF51F2781233229F7F50109
:102EA000EE0FFF1FEE0DFF1DE75BFF4F0190F0815E
:102EB000E02D2AE732E0E20EF31ED7018D919C91BE
:102EC00026E83DEFE20EF31EE80FF91F83E2858B43
:102ED0004130510571F4F501EE0FFF1FEE0DFF1D9E
:102EE000E75BFF4F0190F081E02DD60115968C91A4
:102EF00082AFD501AA0FBB1FAE0DBF1DA75BBF4F91
:102F0000ED91FC91119791E093AFF60195809A9421
:102F1000F4E0F91508F4CCC32D913C911197F6011A
:102F20008281F90183AB14AAF6018381F90182AB96
:102F3000ED91FC9182A98150823010F493A7A0C436
:102F400013A69EC4813009F09BC482A7D201ED91E3
:102F5000FC91D6011A968C918083F2010081118137
:102F60000E944C03D801D5966D937D938D939C93CD
:102F7000D897A70146585D4FFA01118210829A0135
:102F8000B20111C0FB01008111810A0F1B1FAC0DA2
:102F9000BD1D8C91D80115968C93F901808191818A
:102FA000019691838083F901A081B181A430B1059C
:102FB00048F3DA011D921C92970126583D4FA50156
:102FC000440F551F4E0D5F1D475B5F4F12C0FA0146
:102FD000608171816A0F7B1FAC0DBD1D14968C91B1
:102FE000DB0111968C93F901808191810196918387
:102FF0008083F901A081B181A430B10540F360E084
:1030000070E0D6011C968C91833211F461E070E07F
:10301000D501AA0FBB1FAE0DBF1DA75BBF4F2D91E2
:103020003C911197A601460F571FFA018485F901BB
:1030300081A7970126583D4FF901118210820D9109
:103040001C911197F80181A5813089F0813020F021
:10305000823009F089C063C0FA018585F801838B4D
:10306000ED91FC91DA011E968C91848B7DC0F90163
:10307000118210824901AD0114C0FA010081118151
:103080000A0F1B1FAC0DBD1DA60FB71F1D968C91FF
:10309000D8011B968C93F4018081918101969183D4
:1030A0008083F401A081B181A430B10530F3D9014E
:1030B0001D921C92970126583D4FA501440F551FA4
:1030C0004E0D5F1D475B5F4F14C0FA0100811181F7
:1030D0000A0F1B1FAC0DBD1DA60FB71F51968C917B
:1030E000D8011F968C93F90180819181019691837B
:1030F0008083F901A081B181A430B10530F334C0DF
:10310000ED91FC911197E80FF91F258BFA01808151
:103110009181019691838083459710F00CC0A9019D
:10312000FA0180819181F601E80FF91FE60FF71F80
:103130002585233229F7F501EE0FFF1FEE0DFF1D48
:10314000E75BFF4F0190F081E02D2AE732E0E20ECD
:10315000F31ED7018D919C9126E83DEFE20EF31E00
:10316000E80FF91F83E2858BD501AA0FBB1FAE0DB7
:10317000BF1DA75BBF4F2D913C911197F601808534
:10318000F90183AB14AAF6018185F90182ABED91B7
:10319000FC9182A98150823018F481E083A701C09C
:1031A00013A66130710571F4F501EE0FFF1FEE0DEE
:1031B000FF1DE75BFF4F0190F081E02DD6011B96CC
:1031C0008C9182AFAA0CBB1CAE0CBF1CE9E4F0E0F2
:1031D000AE0EBF1ED501ED91FC9181E083AFF601EB
:1031E00093849A94F4E0F91508F04AC361C28250BE
:1031F000843008F045C321E832E0E20EF31ED70127
:103200008C912FE73DEFE20EF31E882309F066C193
:10321000D6011B968C918083F201008111810E945E
:103220004C03D801D5966D937D938D939C93D8973D
:1032300040E050E0F6018585833211F441E050E032
:10324000D501AA0FBB1FAE0DBF1DA75BBF4F2D91B0
:103250003C911197B601640F751FFB018585F9013B
:1032600081A7970126583D4FF901118210820D91D7
:103270001C911197F80181A5813089F0813020F0EF
:10328000823009F089C063C0FB018685F801838B19
:10329000ED91FC91DB011F968C91848B7DC0F9012F
:1032A000118210824901BD0114C0FB01008111810E
:1032B0000A0F1B1FAC0DBD1DA40FB51F1E968C91D0
:1032C000D8011B968C93F4018081918101969183A2
:1032D0008083F401A081B181A430B10530F3D9011C
:1032E0001D921C92970126583D4FB501660F771F1E
:1032F0006E0D7F1D675B7F4F14C0FB010081118144
:103300000A0F1B1FAC0DBD1DA40FB51F52968C914B
:10331000D8011F968C93F901808191810196918348
:103320008083F901A081B181A430B10530F334C0AC
:10333000ED91FC911197E80FF91F258BFB0180811E
:103340009181019691838083459710F00CC0B9015B
:10335000FB0180819181F601E80FF91FE40FF51F51
:103360002685233229F7F501EE0FFF1FEE0DFF1D15
:10337000E75BFF4F0190F081E02D2AE732E0E20E9B
:10338000F31ED7018D919C9126E83DEFE20EF31ECE
:10339000E80FF91F83E2858B4130510571F4F50187
:1033A000EE0FFF1FEE0DFF1DE75BFF4F0190F08159
:1033B000E02DD6011C968C9182AFD501AA0FBB1FC0
:1033C000AE0DBF1DA75BBF4FED91FC91119781E042
:1033D00083AFF60194849A94F4E0F91508F468C177
:1033E000970126583D4FF901118210828901AD01E4
:1033F00011C0FA01608171816A0F7B1FAC0DBD1D88
:103400008C91DB0115968C93F80180819181019656
:1034100091838083F801A081B181A430B10548F384
:10342000D9011D921C92970126583D4FA501440FCA
:10343000551F4E0D5F1D475B5F4F12C0FA01608143
:1034400071816A0F7B1FAC0DBD1D14968C91DB0141
:1034500011968C93F90180819181019691838083EB
:10346000F901A081B181A430B10540F3118210822D
:10347000970126583D4FA501440F551FD701A40FB2
:10348000B51FA75BBF4F11C06D917C911197680F5D
:10349000791F8C0D9D1DFC018085FB018187F90141
:1034A00080819181019691838083F901808191814E
:1034B0008230910548F3D701A40FB51FA75BBF4F1A
:1034C000ED91FC91119713A62D913C911197F60166
:1034D0008285F90182ABED91FC91CDC1823009F07A
:1034E000CFC1D60151968C918083F2010081118168
:1034F0000E944C03D801D5966D937D938D939C9338
:10350000D89740E050E0F6018389833211F441E01E
:1035100050E0D501AA0FBB1FAE0DBF1DA75BBF4F6B
:103520002D913C911197B601640F751FFB018389A2
:10353000F90181A7970126583D4FF90111821082A8
:103540000D911C911197F80181A5813089F081308E
:1035500020F0823009F089C063C0FB018489F80142
:10356000838BED91FC91DB0155968C91848B7DC012
:10357000F901118210824901BD0114C0FB010081D3
:1035800011810A0F1B1FAC0DBD1DA40FB51F549652
:103590008C91D8011B968C93F401808191810196C6
:1035A00091838083F401A081B181A430B10530F30F
:1035B000D9011D921C92970126583D4FB501660F07
:1035C000771F6E0D7F1D675B7F4F14C0FB0100816D
:1035D00011810A0F1B1FAC0DBD1DA40FB51F5896FE
:1035E0008C91D8011F968C93F9018081918101966D
:1035F00091838083F901A081B181A430B10530F3BA
:1036000034C0ED91FC911197E80FF91F258BFB0158
:1036100080819181019691838083459710F00CC041
:10362000B901FB0180819181F601E80FF91FE40FD8
:10363000F51F2489233229F7F501EE0FFF1FEE0D48
:10364000FF1DE75BFF4F0190F081E02D2AE732E09C
:10365000E20EF31ED7018D919C9126E83DEFE20E1C
:10366000F31EE80FF91F83E2858B4130510571F499
:10367000F501EE0FFF1FEE0DFF1DE75BFF4F019001
:10368000F081E02DD60152968C9182AFD501AA0F20
:10369000BB1FAE0DBF1DA75BBF4FED91FC911197F6
:1036A00081E083AFF60192889A94F4E0F91518F45A
:1036B000C701672D2BC5970126583D4FF90111828F
:1036C00010828901AD0111C0FA01608171816A0F18
:1036D0007B1FAC0DBD1D8C91DB0115968C93F80101
:1036E00080819181019691838083F801A081B181CD
:1036F000A430B10548F3D9011D921C9297012658B8
:103700003D4FA501440F551F4E0D5F1D475B5F4F99
:1037100012C0FA01608171816A0F7B1FAC0DBD1D63
:1037200014968C91DB0111968C93F9018081918123
:10373000019691838083F901A081B181A430B10504
:1037400040F311821082970126583D4FA501440F86
:10375000551FB701640F751F675B7F4F12C0FB01D8
:10376000008111810A0F1B1FAC0DBD1D18968C9195
:10377000D80119968C93F9018081918101969183EA
:103780008083F901A081B181A230B10540F3F70136
:10379000E40FF51FE75BFF4FA081B18182E09B96AC
:1037A0008C9340815181D6011A968C91DA019C96B6
:1037B0008C930190F081E02DD6011B968C9185A70A
:1037C000F90111821082970126583D4FA501440F3F
:1037D000551F4E0D5F1D475B5F4F12C0FA016081A0
:1037E00071816A0F7B1FAC0DBD1D1C968C91DB0196
:1037F0009E968C93F90180819181019691838083BB
:10380000F901A081B181A230B10540F3118210828B
:10381000970126583D4FA501440F551FD701A40F0E
:10382000B51FA75BBF4F11C06D917C911197680FB9
:10383000791F8C0D9D1DFC018685FB0180ABF90174
:1038400080819181019691838083F90180819181AA
:103850008230910548F3F701E40FF51FE75BFF4F56
:1038600020813181D60150968C91D901D2968C93CA
:103870000190F081E02D82A9823011F481E083A7CC
:10388000072D10E0A92CBB2481E090E068E670E0F1
:103890000E94FF00AC01F801EE0FFF1FEE0FFF1FAB
:1038A000E00FF11FEA0DFB1D3B96EE0FFF1FEE0D23
:1038B000FF1D518340834115510521F4C7010E942A
:1038C0006F1026C422E432E0E20EF31ED7019C9171
:1038D0002EEB3DEFE20EF31E913009F0A2C1A0E8FD
:1038E000B2E0EA0EFB1ED7018C9120E83DEFE20E1C
:1038F000F31E882309F0BCC04A595F4FD6011596C4
:103900008C91DA018C93D60116968C910190F081FE
:10391000E02D833221F4E959FF4F908303C0E95928
:10392000FF4F1082F801EE0FFF1FEE0FFF1FE00F99
:10393000F11FEA0DFB1D3B96EE0FFF1FEE0DFF1D65
:103940000190F081E02DE959FF4F6081862E992486
:10395000D701A658BD4F11961C921E92F801EE0F8A
:10396000FF1FEE0DFF1DE75BFF4F0190F081E02D83
:1039700081A5813071F0813018F0823039F403C0B4
:1039800082E090E01CC040E050E00BC080E090E09E
:1039900016C088E090E013C02F5F3F4F11963C9314
:1039A0002E932D913C911197F601E20FF31FE80D34
:1039B000F91D87814F5F5F4F833271F7CA01695FDD
:1039C000680F262F30E0F701EA5BFD4F808191817F
:1039D0008217930710F431832083F801EE0FFF1F45
:1039E000EE0FFF1FE00FF11FEA0DFB1D3B96EE0FE0
:1039F000FF1FEE0DFF1D608171816C597F4F46E402
:103A000052E0E40EF51ED7018D919C914AEB5DEFDB
:103A1000E40EF51E821B930BDB018D939C93D70163
:103A2000A658BD4F11961C921E924D01AF0110C0B9
:103A30006E0F7F1FEC0DFD1DE20FF31F8081FB0158
:103A40008083D4018D919C91119701968D939C93C5
:103A5000D401ED91FC91DA016D917C916C597F4F0D
:103A6000DB018D919C9164567040E817F90700F3D3
:103A7000E0E8F2E0EE0EFF1ED7019C91E0E8FDEFDA
:103A8000EE0EFF1E913009F0CCC0F801EE0FFF1FC3
:103A9000EE0FFF1FE00FF11FEA0DFB1D3B96EE0F2F
:103AA000FF1FEE0DFF1D208131812A593F4FD601A6
:103AB0001B968C91D9018C93D6011C968C91019008
:103AC000F081E02D833221F4E959FF4F908303C048
:103AD000E959FF4F1082F801EE0FFF1FEE0FFF1F95
:103AE000E00FF11FEA0DFB1D3B96EE0FFF1FEE0DE1
:103AF000FF1D0190F081E02DE959FF4F6081862E76
:103B00009924D701A658BD4F11961C921E92F80118
:103B1000EE0FFF1FEE0DFF1DE75BFF4F0190F081E1
:103B2000E02D81A5813071F0813018F0823039F4B8
:103B300003C082E090E01CC040E050E00BC080E099
:103B400090E016C088E090E013C02F5F3F4F1196C1
:103B50003C932E932D913C911197F601E20FF31FA8
:103B6000E80DF91D85854F5F5F4F833271F7CA01FC
:103B7000635F680F262F30E0F701EA5BFD4F80811D
:103B800091818217930710F431832083F801EE0F9F
:103B9000FF1FEE0FFF1FE00FF11FEA0DFB1D3B960D
:103BA000EE0FFF1FEE0DFF1D608171816C597F4F7D
:103BB00046E452E0E40EF51ED7018D919C914AEB4C
:103BC0005DEFE40EF51E821B930BDB018D939C933E
:103BD000D701A658BD4F11961C921E924D01AF0100
:103BE00010C06E0F7F1FEC0DFD1DE20FF31F8081D3
:103BF000FB018083D4018D919C91119701968D9347
:103C00009C93D401ED91FC91DA016D917C916C59FA
:103C10007F4FDB018D919C9164567040E817F90746
:103C200000F3E2E4F2E0EE0EFF1ED7018C91EEEB22
:103C3000FDEFEE0EFF1E8250843008F0ABC121E88C
:103C400032E0E20EF31ED7018C91EFE7FDEFEE0EAE
:103C5000FF1E882309F0CEC0F801EE0FFF1FEE0F04
:103C6000FF1FE00FF11FEA0DFB1D3B96EE0FFF1F3C
:103C7000EE0DFF1D208131812A593F4FD6011C9640
:103C80008C91D9018C93D6011D968C910190F08175
:103C9000E02D833229F4E959FF4F81E0808303C08E
:103CA000E959FF4F1082F801EE0FFF1FEE0FFF1FC3
:103CB000E00FF11FEA0DFB1D3B96EE0FFF1FEE0D0F
:103CC000FF1D0190F081E02DE959FF4F6081862EA4
:103CD0009924D701A658BD4F11961C921E92F80147
:103CE000EE0FFF1FEE0DFF1DE75BFF4F0190F08110
:103CF000E02D81A5813071F0813018F0823039F4E7
:103D000003C082E090E01CC040E050E00BC080E0C7
:103D100090E016C088E090E013C02F5F3F4F1196EF
:103D20003C932E932D913C911197F601E20FF31FD6
:103D3000E80DF91D86854F5F5F4F833271F7CA0129
:103D4000625F680F262F30E0F701EA5BFD4F80814C
:103D500091818217930710F431832083F801EE0FCD
:103D6000FF1FEE0FFF1FE00FF11FEA0DFB1D3B963B
:103D7000EE0FFF1FEE0DFF1D608171816C597F4FAB
:103D800046E452E0E40EF51ED7018D919C914AEB7A
:103D90005DEFE40EF51E821B930BDB018D939C936C
:103DA000D701A658BD4F11961C921E925D01AF011E
:103DB00010C06E0F7F1FEC0DFD1DE20FF31F808101
:103DC000FB018083D5018D919C91119701968D9374
:103DD0009C93D501ED91FC91DA016D917C916C5928
:103DE0007F4FDB018D919C9164567040E817F90775
:103DF00000F3D0C0823009F0CDC0F801EE0FFF1FF4
:103E0000EE0FFF1FE00FF11FEA0DFB1D3B96EE0FBB
:103E1000FF1FEE0DFF1D208131812A593F4FD60132
:103E200052968C91D9018C93D60153968C91019026
:103E3000F081E02D833229F4E959FF4F81E080833E
:103E400003C0E959FF4F1082F801EE0FFF1FEE0F7C
:103E5000FF1FE00FF11FEA0DFB1D3B96EE0FFF1F4A
:103E6000EE0DFF1D0190F081E02DE959FF4F6081BB
:103E7000862E9924D701A658BD4F11961C921E92EA
:103E8000F801EE0FFF1FEE0DFF1DE75BFF4F0190E6
:103E9000F081E02D81A5813071F0813018F0823001
:103EA00039F403C082E090E01CC040E050E00BC059
:103EB00080E090E016C088E090E013C02F5F3F4F95
:103EC00011963C932E932D913C911197F601E20FA0
:103ED000F31FE80DF91D87894F5F5F4F833271F73C
:103EE000CA016C5E680F262F30E0F701EA5BFD4FD8
:103EF000808191818217930710F431832083F80128
:103F0000EE0FFF1FEE0FFF1FE00FF11FEA0DFB1D6D
:103F10003B96EE0FFF1FEE0DFF1D608171816C5906
:103F20007F4F46E452E0E40EF51ED7018D919C913F
:103F30004AEB5DEFE40EF51E821B930BDB018D93C4
:103F40009C93D701A658BD4F11961C921E925D01FD
:103F5000AF0110C06E0F7F1FEC0DFD1DE20FF31FB0
:103F60008081FB018083D5018D919C9111970196F1
:103F70008D939C93D501ED91FC91DA016D917C912B
:103F80006C597F4FDB018D919C9164567040E8170E
:103F9000F90700F3F701E85BFF4F80818F5F8083B3
:103FA000853009F41082000F111F0E0D1F1D075BD5
:103FB0001F4FD801ED91FC9193AD82AD981711F48C
:103FC00081E081AF99E4C92ED12CCE0CDF1C662490
:103FD0007724870106581D4F83E5282E312C2E0C9F
:103FE0003F1CF701E355FD4FFA83E9839701215503
:103FF0003D4F3C832B83A701415A5F4F5E834D8326
:10400000C7018E5B9D4F98878F83D701AF57BD4FF8
:10401000BA87A987F701E752FE4FFC87EB87D801E3
:104020001D921C920E944C03D601ED91FC91309799
:1040300009F48FC325A936A947A950AD1216130656
:10404000140615060CF085C3621B730B840B950BCD
:1040500069557B41804090400CF037C381AD813081
:1040600009F000C3B62CE981FA816082AB81BC8182
:104070001C92ED81FE8180818F5F8083D8011D922B
:104080001C920FC0F901BA96EE0FFF1FEE0DFF1D37
:1040900080819181892B59F02F5F3F4FF801318347
:1040A0002083D8012D913C912530310558F3E22F22
:1040B000AD81BE818C91853090F0AB85BC858C91B3
:1040C000813029F0813038F0823049F41DC0C701B9
:1040D0000E94D60F03C0C7010E94690FE82F4E2E21
:1040E000552481E090E064EB70E00E94FF00AC0199
:1040F0009201265D3F4F220F331F2E0D3F1DF90108
:1041000091838083009731F4C7016B2D0E940B0FC0
:104110008FEF2EC3D1018C9181508C9345555F4F09
:10412000D601ED91FC9185A896A8A7A8B0ACDA01BC
:104130008D929D92AD92BC9213974F5250408081C8
:10414000FA018083D901ED91FC91E955FF4FD60129
:104150008D919C91DC019A968C918083F901A081CC
:10416000B181F60180819181FC0183A518968C9321
:10417000AF81B8858C91813009F060C0F901A081D0
:10418000B181A955BF4F8C91A75AB040813009F039
:1041900048C0D8011D921C92A90116C0FA01A08145
:1041A000B181A80FB91FAF57BF4FF60120813181F0
:1041B000280F391FF90185818C93D8018D919C912D
:1041C000119701968D939C93F801808191818430A1
:1041D000910520F311821082A201465D5F4F440FCA
:1041E000551F4E0D5F1D16C0FA01A081B181A80FA9
:1041F000B91FA358BF4FF60120813181280F391F05
:10420000F90181818C93D8018D919C911197019630
:104210008D939C93F801808191818430910520F3E6
:104220006EC0882309F06BC0AB57BF4FF601808189
:104230009181FC0181858C93D90156C0F8011182CE
:104240001082A90116C0FA01A081B181A80FB91F7F
:10425000AF57BF4FF60120813181280F391FF90177
:1042600085818C93D8018D919C91119701968D93A6
:104270009C93F801808191818430910520F3118213
:1042800010829201265D3F4FB901660F771F6E0DB8
:104290007F1D13C0DB01ED91FC91E80FF91FE3587E
:1042A000FF4F480F591FDA0111968C918083F80156
:1042B00080819181019691838083D8018D919C9119
:1042C000F601408151818430910520F3D901AA0F74
:1042D000BB1FAE0DBF1D2D913C9111972B573F4F2A
:1042E000FA018185F9018083ED91FC91EA57FF4F36
:1042F000D6018D919C91DC011A968C918083F601F8
:10430000808191813AE2A32EB12CA40CB51CAA0C99
:10431000BB1CAE0CBF1CD501ED91FC91EA55FF4FC3
:10432000DC01DA966C91DA97D3968D919C91D497B3
:1043300070E00E946A6E6083D501ED91FC91E855B2
:10434000FF4FD6018D919C91DC0199968C918083D1
:10435000F501A081B181A855BF4F8C91A85AB040FA
:104360008130D9F0813020F0823009F08BC05DC0FF
:10437000A157BF4FF60180819181FC0183898C9305
:10438000D501ED91FC91E057FF4FD6018D919C91A5
:10439000DC0154968C91808375C0F80111821082E3
:1043A000A50116C0FA01A081B181A80FB91FA557B8
:1043B000BF4FF60120813181280F391FF901838514
:1043C0008C93D8018D919C91119701968D939C931C
:1043D000F801808191818430910520F3118210824F
:1043E000A201465D5F4F440F551F4E0D5F1D16C065
:1043F000FA01A081B181A80FB91FA957BF4FF601DB
:1044000020813181280F391FF90187858C93D801CC
:104410008D919C91119701968D939C93F8018081C9
:1044200091818430910520F32DC0D8011D921C92FA
:10443000A501F80180819181FA01A081B181A80FC5
:10444000B91FAF56BF4FF60120813181280F391FA8
:10445000F90185898C93D8018D919C9111970196D2
:104460008D939C93D601ED91FC91E80FF91F25895E
:104470002332F9F6D501ED91FC91E80FF91FEF56C3
:10448000FF4F2083D601ED91FC9182AD682F70E043
:1044900061507040F301EE0FFF1FEE0FFF1FE60D9E
:1044A000F71DE60FF71F3B96EE0FFF1FEE0DFF1DEA
:1044B000F88BEF8788249924AA24BB24A201465DA7
:1044C0005F4F440F551F4E0D5F1D32C0D8011D9226
:1044D0001C9216C0FA0120813181280F391F2A0D44
:1044E0003B1DA80FB91F8C91D9011C968C93089481
:1044F000811C911CF80180819181019691838083B8
:10450000D8018D919C91EF85F889A081B181AC593A
:10451000BF4F2D913C911197A456B040821793073D
:10452000C8F2A20EB31E615070403297F88BEF872D
:10453000FFEF6F3F7F0751F69201265D3F4F220F3D
:10454000331F2E0D3F1DF901A081B181A059BF4F2E
:1045500011969C928E92A057B040E985FA85808191
:10456000823009F044C0AC58BF4FF6018081918180
:10457000FC0184A58C93D901ED91FC91EB58FF4F80
:10458000D6018D919C91DC019D968C918083D901FF
:10459000ED91FC91EA58FF4FD6018D919C91DC0181
:1045A0009E968C918083D901ED91FC91E958FF4F43
:1045B000D6018D919C91DC019F968C918083D901CD
:1045C000ED91FC91E858FF4FD6018D919C91DC0153
:1045D000D0968C918083D901ED91FC91E758FF4FE3
:1045E000D6018D919C91DC01D1968C918083F8014C
:1045F000118210825301AA0CBB1CAA0CBB1CA60C76
:10460000B71C1CC0EA0DFB1D3B96EE0FFF1FEE0D05
:10461000FF1D808191810E94C501D8018D919C91DF
:104620001197F501E80FF91F3B96EE0FFF1FEE0DF6
:10463000FF1D1182108201968D939C93D801ED91FC
:10464000FC91E530F105F0F2D601ED91FC9115AA4F
:1046500016AA17AA10AECF010E94C501F601118259
:10466000108277C092AD83AD981709F072C0D8015F
:104670001D921C925301AA0CBB1CAA0CBB1CA60CBD
:10468000B71C1CC0EA0DFB1D3B96EE0FFF1FEE0D85
:10469000FF1D808191810E94C501F8018081918177
:1046A000F501E80FF91F3B96EE0FFF1FEE0DFF1D02
:1046B000118210820196D8018D939C93D801ED91BF
:1046C000FC91E530F105F0F22DC0F8011182108265
:1046D0005301AA0CBB1CAA0CBB1CA60CB71C1CC00B
:1046E000EA0DFB1D3B96EE0FFF1FEE0DFF1D8081B7
:1046F00091810E94C501D8018D919C911197F5017E
:10470000E80FF91F3B96EE0FFF1FEE0DFF1D118204
:10471000108201968D939C93D801ED91FC91E53028
:10472000F105F0F2D601ED91FC9115AA16AA17AA8F
:1047300010AECF010E94C501F60111821082D10195
:104740008C9181508C93E981FA816082AB81BC812C
:104750001C920894611C711CE2E0F0E0CE0EDF1E9A
:10476000F5E06F16710409F05ACC80E001C081E0D9
:1047700060960FB6F894DEBF0FBECDBFCF91DF912C
:104780001F910F91FF90EF90DF90CF90BF90AF906F
:104790009F908F907F906F905F904F903F902F9061
:1047A0000895AF92BF92CF92DF92EF92FF920F9354
:1047B0001F93CF93DF93EC016B015A01890188E7C6
:1047C00090E061E070E00E94FF007C01009711F42E
:1047D0001FEF81C0B8016D5F7F4FFE01E658FD4FAE
:1047E0007183608340E050E0DF010BC0F601E20F0F
:1047F000F31F8081480F511D2F5F3F4F11963C934F
:104800002E932D913C9111972A153B0578F34F3F3C
:10481000510519F04F3F09F06AC0DE01AA5BBD4F98
:1048200011961C921E92FE01E658FD4F0C5F1F4F21
:1048300011830083045010409F010894A108B1081F
:10484000AD0116C0FD013497E01BF10BEE0DFF1D0D
:10485000AC0DBD1D8C918083FA0180819181019600
:1048600091838083F9018081918101969183808376
:10487000F901A081B181AA15BB0520F36C0D7D1D46
:10488000FB018081813879F0823818F48038D9F4BE
:1048900005C0803971F08139B1F40FC0C058DD4FC7
:1048A00081E0888303C0C058DD4F1882C058D240D1
:1048B0000AC0CF57DD4F188204C0CF57DD4F82E0CA
:1048C0008883C158D240CE01B7010E94BD11182F74
:1048D000C7010E94C501812FDF91CF911F910F91D8
:1048E000FF90EF90DF90CF90BF90AF900895C701F9
:1048F0000E94C50111E0EFCF0F931F93CF93DF9379
:10490000EC018B0141E00E94EE66882311F081E00A
:1049100005C0CE01B80140E00E94EE66DF91CF9164
:104920001F910F9108952F923F924F925F926F9235
:104930007F928F929F92AF92BF92CF92DF92EF922F
:10494000FF920F931F93DF93CF93CDB7DEB762979C
:104950000FB6F894DEBF0FBECDBF6C014B010E94B5
:104960004C03F82E2CED31E0C20ED31E82E0D601AE
:104970008C93E4E2FEEFCE0EDF1EF601E255FD4F12
:104980008081882321F400E010E0332408C08EE702
:10499000D4018C93108201E010E0332433944F2D26
:1049A000592FCB01DA012C013D01EBE0F0E0FA8B4D
:1049B000E98BEE2422244EEAA42E42E0B42EAC0C65
:1049C000BD1C96012B5B3D4F388B2F875FC1AF8598
:1049D000B889FC90FF2009F0A9C081E599E00E9408
:1049E0000E07882309F491C081E599E00E94090728
:1049F000F401E00FF11F80830F5F1F4F0E944C03F3
:104A0000AC01CB01DA012C013D0101501040F40151
:104A1000E00FF11F0F5F1F4F80818E3761F48CE232
:104A200091E0801B910B8E36910520F421E0D50199
:104A30002C9301C033940130110541F400E010E0E3
:104A400080818E3751F401E010E007C031E00C3274
:104A5000130718F0FF24F39401C0FF2486E0289E7A
:104A6000900111242C5F3F4FC9018E0D911D081735
:104A7000190799F491E0E91699F0F401E00FF11F9C
:104A8000319780818A58823080F0A989BA8913963B
:104A9000BA8BA98BEE24E39403C0B1E0EB1629F4A2
:104AA000E989FA893196FA8BE98BF401E00FF11F5D
:104AB0003197E081ED3749F4EE2001F529893A89F3
:104AC0002F5F3F4F3A8B298B19C0EA3851F40217F8
:104AD0001307A1F489899A8906969A8B898B239466
:104AE0000DC0EE3759F491E0E91641F4A989BA896D
:104AF0001197BA8BA98B39EFE32EEA0EE989FA896F
:104B00000E171F0711F4FF24F3940E944C030E9418
:104B10004C036419750986099709615D77408040E7
:104B2000904008F4B1C081E599E0ABC021E0F216F5
:104B300009F0ACC083E599E00E940E07882311F4C8
:104B4000FF2490C083E599E00E940907F401E00F7B
:104B5000F11F80830F5F1F4F0E944C03AC01CB01FC
:104B6000DA012C013D0101501040F401E00FF11F6A
:104B70000F5F1F4F80818E3759F48CE291E0801BCC
:104B8000910B8E36910518F4D501FC9201C0339437
:104B90000130110541F400E010E080818E3751F4BE
:104BA00001E010E007C0B1E00C321B0718F0FF2451
:104BB000F39401C0FF24E6E02E9E900111242C5FA7
:104BC0003F4FC9018E0D911D0817190799F4F1E0A7
:104BD000EF1699F0F401E00FF11F319780818A58A8
:104BE000823080F089899A8903969A8B898BEE248A
:104BF000E39403C091E0E91629F4A989BA891196D2
:104C0000BA8BA98BF401E00FF11F3197E081ED37EA
:104C100041F4EE2001F5E989FA893196FA8BE98BA6
:104C20001AC0EA3859F402171307A9F429893A89F6
:104C30002A5F3F4F3A8B298B23940DC0EE3759F4EE
:104C400031E0E31641F489899A8901979A8B898B1F
:104C500029EFE22EE80EA989BA890A171B0711F479
:104C6000FF24F3940E944C030E944C0364197509BD
:104C700086099709615D77408040904028F083E580
:104C800099E00E94040707C0FF2029F4F501808104
:104C9000882309F49CCED4018C918E3709F033948B
:104CA00091E0E92EF12CAA24BB248AE7482E82E069
:104CB000582E4C0C5D1CF601E655FD4FFA83E98336
:104CC000960125553D4F3C832B83C60184559D4F4E
:104CD0009E838D83D601A755BD4FB887AF83F6015C
:104CE000E855FD4FFA87E987960124523E4F3C87ED
:104CF0002B8766246394C60185529E4F9E878D87BD
:104D00009BC00894E11CF11C80818E3721F0319604
:104D1000E016F106B0F3D701AA19BB09BA8BA98B2B
:104D2000F201118210827724A4014A0D5B1D0CC090
:104D3000FA01E20FF31F80818D3709F473942F5F1E
:104D40003F4FD2012D933C93F2012081318189891B
:104D50009A892817390760F3772049F09701281BB3
:104D6000390BC601B40149895A890E94910B9701F8
:104D7000A989BA892A1B3B0BF401E20FF31F838137
:104D80008B38C1F18C3820F48A3809F050C006C045
:104D9000803991F0813909F04AC01BC0E989FA894C
:104DA000EA0DFB1DE719F109FA8BE98BC601B40185
:104DB000AF010E94EC0B3BC089899A898A0D9B1D2B
:104DC000871991099A8B898BC601B40149895A893F
:104DD0000BC0E989FA89EA0DFB1DE719F109FA8B85
:104DE000E98BC601B401AF010E94D123AD85BE8518
:104DF0008C931DC08581A981BA818C938681AB81FA
:104E0000BC818C938781AD81BE818C938185AF817C
:104E1000B8858C938085E985FA858083882321F481
:104E2000AB85BC851C9203C0EB85FC8560823A94FF
:104E300057010894E11CF11C332021F0F401EE0D20
:104E4000FF1D62CF2CED31E0C20ED31ED6018C9136
:104E500062960FB6F894DEBF0FBECDBFCF91DF9143
:104E60001F910F91FF90EF90DF90CF90BF90AF9088
:104E70009F908F907F906F905F904F903F902F907A
:104E800008952F923F924F925F926F927F928F92EE
:104E90009F92AF92BF92CF92DF92EF92FF920F93C9
:104EA0001F93DF93CF93CDB7DEB72A970FB6F89451
:104EB000DEBF0FBECDBF5C014B010E944C03F82E3C
:104EC0002CED31E0A20EB31E82E0D5018C93E4E21A
:104ED000FEEFAE0EBF1EF501E255FD4F8081882327
:104EE00021F400E010E0332408C08EE7D4018C9355
:104EF000108201E010E0332433944F2D592FCB0161
:104F0000DA012C013D01E7E0F0E0FA87E987EE24C1
:104F10002224FEEACF2EF2E0DF2ECA0CDB1C950124
:104F20002B5B3D4F38872F835FC1AF81B885FC90E5
:104F3000FF2009F0A9C081E599E00E940E078823AF
:104F400009F491C081E599E00E940907F401E00F9E
:104F5000F11F80830F5F1F4F0E944C03AC01CB01F8
:104F6000DA012C013D0101501040F401E00FF11F66
:104F70000F5F1F4F80818E3761F48CE291E0801BC0
:104F8000910B8E36910520F421E0D6012C9301C0BF
:104F900033940130110541F400E010E080818E3738
:104FA00051F401E010E007C031E00C32130718F0B3
:104FB000FF24F39401C0FF2486E0289E9001112471
:104FC0002C5F3F4FC9018E0D911D0817190799F4E9
:104FD00091E0E91699F0F401E00FF11F319780811B
:104FE0008958823080F0A985BA851396BA87A98737
:104FF000EE24E39403C0B1E0EB1629F4E985FA85C9
:105000003196FA87E987F401E00FF11F3197E081CB
:10501000ED3749F4EE2001F529853A852F5F3F4FA2
:105020003A87298719C0EA3851F402171307A1F407
:1050300089859A8506969A87898723940DC0EE37CD
:1050400059F491E0E91641F4A985BA851197BA8718
:10505000A987E9EFEE2EEA0EE985FA850E171F07FC
:1050600011F4FF24F3940E944C030E944C03641932
:10507000750986099709615D77408040904008F482
:10508000B1C081E599E0ABC021E0F21609F0ACC0F7
:1050900083E599E00E940E07882311F4FF2490C055
:1050A00083E599E00E940907F401E00FF11F808376
:1050B0000F5F1F4F0E944C03AC01CB01DA012C01A2
:1050C0003D0101501040F401E00FF11F0F5F1F4F31
:1050D00080818E3759F48CE291E0801B910B8E36E3
:1050E000910518F4D601FC9201C0339401301105EA
:1050F00041F400E010E080818E3751F401E010E0CF
:1051000007C0B1E00C321B0718F0FF24F39401C074
:10511000FF24E6E02E9E900111242C5F3F4FC90131
:105120008E0D911D0817190799F4F1E0EF1699F00B
:10513000F401E00FF11F319780818958823080F0AF
:1051400089859A8503969A878987EE24E39403C01C
:1051500091E0E91629F4A985BA851196BA87A9873D
:10516000F401E00FF11F3197E081ED3741F4EE20BB
:1051700001F5E985FA853196FA87E9871AC0EA3898
:1051800059F402171307A9F429853A852A5F3F4F7E
:105190003A87298723940DC0EE3759F431E0E3169E
:1051A00041F489859A8501979A87898779EFE72E57
:1051B000E80EA985BA850A171B0711F4FF24F3949A
:1051C0000E944C030E944C036419750986099709D3
:1051D000615D77408040904028F083E599E00E942F
:1051E000040707C0FF2029F4F6018081882309F411
:1051F0009CCED4018C918E3709F0339461E0E62E79
:10520000F12CCC24DD245AE7452E52E0552E4A0CD1
:105210005B1CF501E552FE4FFA83E98395012855A1
:105220003D4F3C832B83C50184529E4F9E838D83CB
:105230006624639488C00894E11CF11C80818E3739
:1052400021F03196E016F106B0F3D701AC19BD0993
:10525000BA87A987F201118210827724A4014C0D2C
:105260005D1D0CC0FA01E20FF31F80818D3709F438
:1052700073942F5F3F4FD2012D933C93F201208115
:10528000318189859A852817390760F3772049F09D
:105290009701281B390BC501B40149855A850E9425
:1052A000910B9701A985BA852A1B3B0BF401E20FEC
:1052B000F31F8381813821F1823818F48038F1F5A9
:1052C00012C0893871F18A38C9F5E985FA85EC0D83
:1052D000FD1DE719F109FA87E987C501B401AF019E
:1052E0000E94EC0B2BC089859A858C0D9D1D87191A
:1052F00091099A878987C501B40149855A850BC0F0
:10530000E985FA85EC0DFD1DE719F109FA87E987B2
:10531000C501B401AF010E94D123A981BA818C9348
:105320000DC08581EB81FC818083882321F4AD81D0
:10533000BE811C9203C0ED81FE8160823A946701B8
:105340000894E11CF11C332021F0F401EE0DFF1D47
:1053500075CF2CED31E0A20EB31ED5018C912A96AB
:105360000FB6F894DEBF0FBECDBFCF91DF911F9176
:105370000F91FF90EF90DF90CF90BF90AF909F90F4
:105380008F907F906F905F904F903F902F900895F7
:105390002F923F924F925F926F927F928F929F9245
:1053A000AF92BF92CF92DF92EF92FF920F931F9333
:1053B000DF93CF93CDB7DEB760970FB6F894DEBF1B
:1053C0000FBECDBF6C0178876F838CE291E061E006
:1053D00070E00E94FF005C010097A1F425E432E038
:1053E000C20ED31EF6010081002319F481E599E075
:1053F00004C0013021F483E599E00E940407FF24F2
:10540000FA9400C20E944C030E944C03F601E2553C
:10541000FD4F8081882321F4222433241A8209C07D
:1054200010828EE7F5018083B1E02B2E312CF1E064
:10543000FA83EF81F88580818F3F29F4C601B50199
:105440000E94412706C08E3F79F4C601B5010E9433
:105450009324860104521E4FF8018083C5010E94E7
:10546000C501F801F080CEC18E3E41F4A5E06A2E60
:10547000712C812C912CFDE65F2E07C0E2E36E2E8D
:10548000712C812C912C7EE1572EEF81F88585813E
:10549000853489F48681843409F045C022E432E001
:1054A000C20ED31EF60180812EEB3DEFC20ED31E3D
:1054B0008130C9F5C7C1843461F4EF81F8858681F4
:1054C0008E3489F568EE662E63E0762E812C912C61
:1054D0002AC08E3441F5EF81F8858681843419F530
:1054E00022E432E0C20ED31EF60180812EEB3DEFA6
:1054F000C20ED31E833039F450E4652E5CE9752E5C
:10550000812C912C10C08450823038F440EB642EF2
:1055100046E3742E812C912C06C030E2632E3EE4CB
:10552000732E812C912C0E944C036B837C838D8382
:105530009E830E944C03AC01CB01DA017C018D01FA
:10554000A60142555D4F588B4F87C6018B5B9D4F1F
:105550009C878B87E52DF0E0FE87ED8744244394FC
:105560005CC081E599E00E940E07882309F451C0D0
:1055700081E599E00E940907F501E20DF31D8083A2
:105580000894211C311CF501E20DF31D3197808137
:105590008E37C1F58CE291E0821993092D853E8505
:1055A0008217930760F5EF85F88940822BC021E0D0
:1055B000521679F583E599E00E940E07882349F198
:1055C00083E599E00E940907F501E20DF31D808350
:1055D0000894211C311CF501E20DF31D31978081E7
:1055E0008E3781F48CE291E0821993094D855E85B6
:1055F0008417950720F4EF85F889508203C0FA815B
:10560000FF5FFA830E944C03AC01CB01DA017C01FD
:105610008D010E944C030E944C030E944C036E19A2
:105620007F09800B910B661577058805990508F0B1
:1056300003C10E944C032B813C814D815E81621B22
:10564000730B840B950B60547C498040904008F0AC
:10565000F3C04CE2241641E0340608F0EDC0EF85BB
:10566000F8898081882309F0E7C0EB85FC855080AC
:10567000552009F09CCF75CFFA81FF5FFA8321E0B6
:10568000822E912C00E010E092E0F92E19828AE738
:10569000482E82E0582E4C0C5D1C960126523E4F3F
:1056A0003A872987BBED6B2EB1E07B2E6C0C7D1CFD
:1056B0009CC00894811C911C80818E3721F031960A
:1056C00082149304B0F3A401401B510B588B4F87F5
:1056D000F20111821082EE24A501400F511F0CC06F
:1056E000FA01E20FF31F80818D3709F4E3942F5FF5
:1056F0003F4FF20131832083F201208131818F8578
:1057000098892817390760F3EE2049F09401281B87
:10571000390BC601B5014F8558890E94910BD40100
:10572000EF85F889AE1BBF0BF501EA0FFB1F8381E4
:10573000883881F0893830F4803879F1813809F07F
:1057400048C036C08039A1F1813991F18A3809F019
:1057500040C013C02F853889200F311F2E19310901
:10576000388B2F87C601B5014F8158858D010E9466
:105770005C0EF82EE985FA852BC02F853889200F1D
:10578000311F2E193109388B2F87C601B501A901A8
:105790009D010E94EC0BF82E1CC04F855889400FCC
:1057A000511F4E195109588B4F87C601B5010BC0C7
:1057B0002F853889200F311F2E193109388B2F87FB
:1057C000C601B501A9019D010E94D123F82EF30164
:1057D000F082FF2019F4F981FF5FF9832A812150BB
:1057E0002A8384010894811C911C3A81332321F07F
:1057F000F501E80DF91D60CFC5010E94C501498181
:105800004111FF248F2D60960FB6F894DEBF0FBEB6
:10581000CDBFCF91DF911F910F91FF90EF90DF905F
:10582000CF90BF90AF909F908F907F906F905F9040
:105830004F903F902F900895F50180818E3709F0A9
:105840001BCF1DCFA8EB6A2EABE07A2E812C912CBA
:105850006ACEEF92FF920F931F93CF93DF93EC01E9
:10586000FC01E658FD4F1182108290E0DF0106C076
:105870009F5F2F5F3F4F11963C932E932D913C914C
:105880001197FB01E20FF31F8081882389F7092F0D
:10589000069510E075E4E72E72E0F72EEC0EFD1E83
:1058A00026C0F7018081882361F4FE01E10FF11D1C
:1058B000E857FD4F408150E060E070E081E599E0FD
:1058C00011C0813099F481E198E00E948206FE01C6
:1058D000E10FF11DE857FD4F408150E060E070E0BE
:1058E00083E599E020E030E00E94E6061F5F101794
:1058F000C0F2CE01C857DD4FBE010E94C829DF911A
:10590000CF911F910F91FF90EF900895AF92BF92AA
:10591000CF92DF92EF92FF920F931F93CF93DF937B
:105920008C015A01DC01A658BD4F11961C921E92A3
:10593000ED0109C0F801E80FF91FE857FD4F10828B
:10594000019699838883888199818E31910590F39E
:105950001D921C9290E0D801A658BD4F06C09F5FD3
:105960002F5F3F4F11963C932E932D913C911197B1
:10597000FB01E20FF31F8081882389F7D92ED6948B
:105980007B01C02EC801EC0110C081E198E0F70155
:10599000608141810E94F105C857DD4F888322E074
:1059A00030E0E20EF31EC758D240FE01EC19ED15AF
:1059B00060F3F8E1DF16D9F4F801E658FD4F1182E3
:1059C0001082EF010EC0F801E20FF31FE157FD4F07
:1059D000D501A20FB31F8C9180832F5F3F4F398376
:1059E0002883288139812031310568F362C020E1A4
:1059F000D216D9F4F801E658FD4F11821082EF015A
:105A00000EC0F801E20FF31FE157FD4FD501A20FC1
:105A1000B31F8C9180832F5F3F4F39832883288168
:105A200039812830310568F344C03BE0D316D9F4FE
:105A3000F801E658FD4F11821082EF010EC0F80107
:105A4000E20FF31FE157FD4FD501A20FB31F8C9159
:105A500080832F5F3F4F398328832881398123300A
:105A6000310568F326C08AE0D816D9F4F801E65863
:105A7000FD4F11821082EF010EC0F801E20FF31FFB
:105A8000E157FD4FD501A20FB31F8C9180832F5F8B
:105A90003F4F39832883288139812230310568F3CB
:105AA00008C00D0D111D0A571D4FF5018081F80129
:105AB0008083DF91CF911F910F91FF90EF90DF9046
:105AC000CF90BF90AF9008950F931F93CF93DF9324
:105AD000EC018B01C652DE4F82E08883CA5DD14063
